:100000004DC0000069C0000067C0000065C000006E
:1000100063C0000061C000005FC000005DC0000060
:100020005BC0000059C0000057C0000055C0000070
:100030000C94340851C000004FC000004DC00000B7
:100040004BC0000049C0000047C0000045C0000090
:1000500043C0000041C000003FC000003DC00000A0
:100060003BC0000039C0000037C0000035C00000B0
:1000700033C0000031C000002FC000002DC00000C0
:100080002BC0000029C0000027C00000C314C81402
:10009000CD14D214D714DC14E114E61411241FBEBD
:1000A000CFEFD0E1DEBFCDBF13E0A0E0B1E0E0ECE8
:1000B000FDE300E00BBF02C007900D92AC37B10723
:1000C000D9F72FE0ACE7B3E001C01D92AA3FB20719
:1000D000E1F703D00C94DE1E93CF0E94051AFFCFE8
:1000E00061E082E1F5D260E082E165D28FE39CE9D4
:1000F0000197F1F700C0000061E082E15CC2089561
:10010000CF93DF93D8E0C0E082E16FD38823E1F39F
:1001100080E58A95F1F782E168D3811102C0CC0FA6
:1001200002C0CC0FC16082E160D38111FCCFD150FD
:1001300059F78C2FDF91CF91089560E082E1C8D20A
:1001400082E153D38111FCCF82E14FD38823E1F3C5
:1001500082E14BD38111FCCF08954F925F926F9251
:100160007F928F929F92AF92BF92CF92DF92EF9247
:10017000FF920F931F93CF93DF93CDB7DEB76697B0
:100180000FB6F894DEBF0FBECDBF3C015B014A0144
:10019000422E532E8EE290E09A8389838AE0FE01FC
:1001A0003396DF01982F1D929A95E9F73A96DF0171
:1001B0001D928A95E9F7772334F4E894B7F88DE235
:1001C000FA0181934F019501ADECBCEC0E946E1BCE
:1001D0006C01D694C794D694C794D694C794DF92F2
:1001E000CF920EE411E01F930F939F928F920E9483
:1001F000F31B9301ADECBCEC0E946E1B7C01F694EA
:10020000E794F694E794F694E794FF92EF921F93A5
:100210000F935F924F920E94F31BC601880F991FA4
:10022000CC0CDD1CCC0CDD1CCC0CDD1CC80ED91E8E
:10023000AC18BD08BF92AF921F930F936E01F3E00D
:10024000CF0ED11CDF92CF920E94F31BC701880F03
:10025000991FEE0CFF1CEE0CFF1CEE0CFF1CE80EB1
:10026000F91E6E187F087F926F921F930F938E0175
:10027000035F1F4F1F930F930E94F31BBE016F5F1D
:100280007F4F842D952D0E94A31BBE016F5F7F4F72
:10029000C4010E94A31BB801842D952D0E94A31BAD
:1002A000B601C4010E94A31B0FB6F894DEBF0FBEB7
:1002B000CDBF66960FB6F894DEBF0FBECDBFDF91FF
:1002C000CF911F910F91FF90EF90DF90CF90BF9053
:1002D000AF909F908F907F906F905F904F90089518
:1002E000DF92EF92FF920F931F93CF93DF937C01E6
:1002F0008B01F6DE22DF04DFD82E02DFD82F00DFED
:10030000C82FFEDE6C2F70E0762F6627682B8D2FAE
:1003100090E09701A8019D2920DF81E0DF91CF9136
:100320001F910F91FF90EF90DF90089541E06FE0F3
:1003300087E390E0A5D241E06FE088E390E091D2BE
:1003400040E060E787E390E09BD241E060E788E32C
:1003500090E087C208951F93CF93DF93D8E01CE00D
:1003600060E08D2F28D1C12F8C2F3FD2811113C077
:100370008C2F3BD28823E1F38D2F90E00897FC016E
:10038000EE0FFF1FE80FF91FE050FF4FEC0FF11DBC
:100390003C9780810AC0CF5FCF3031F761E08D2F6D
:1003A0000AD1DF5FDC30E1F680E0DF91CF911F9171
:1003B000089561E083E0FFD085E88A95F1F70000B9
:1003C00060E083E0F8D085E88A95F1F700000895B1
:1003D000CF93C82F40E060EF8BE390E042D26C2FC8
:1003E000607F41E08BE390E03CD2E3DF40E060EFF0
:1003F0008BE390E036D280E1C89FB001112441E048
:100400008BE390E02ED2D5DF85E88A95F1F70000E6
:10041000CF910895CF93C82F60E082E0CCD08C2F8D
:10042000D7DFCF91089581E0F5DF8FE99FE0019755
:10043000F1F700C00000089582E0ECDF8FE99FE053
:100440000197F1F700C00000089541E060EF8AE3F2
:1004500090E016D241E06CE08AE390E011D22FEFF9
:1004600089EF90E0215080409040E1F700C000000B
:10047000E3DF86E0CFDF8CE0CDDF80E1CBDF88E219
:10048000C9DFD1CF0895CF93C82F61E082E093D028
:100490008C2F9EDFCF9108950F931F93CF93FC0174
:1004A0008081882351F08F01C0E0EDDFCF5FF8013C
:1004B000EC0FF11D80818111F8CFCF911F910F9129
:1004C0000895813021F48FE7860FA4CF08958230FC
:1004D00021F48FEB860F9ECF0895833021F48FE8AF
:1004E000860F98CF0895843019F48FEC860F92CF41
:1004F0000895CF93C42FE5DF8C2FC5DFCF910895EA
:10050000CF93DF93EA01DDDFCE01C6DFDF91CF912C
:1005100008950F931F93CF93DF93CDB7DEB72B973B
:100520000FB6F894DEBF0FBECDBF8E010F5F1F4F19
:100530002BE0F80111922A95E9F79F938F937F930F
:100540006F938EE491E09F938F931F930F930E947C
:10055000F31BC801A1DF0FB6F894DEBF0FBECDBFFD
:100560002B960FB6F894DEBF0FBECDBFDF91CF91B3
:100570001F910F910895CF92DF92EF92FF92690140
:100580007A019FDFC701B601C4DFFF90EF90DF90D3
:10059000CF9008953E9A86B1876886B9089597B13D
:1005A000907E97B997B1892B87B9369A3699FECF45
:1005B00084B195B108958830F8F4613069F44BB393
:1005C00021E030E0B90102C0660F771F8A95E2F79B
:1005D000CB01842B8BBB0895611179C04BB321E013
:1005E00030E0B90102C0660F771F8A95E2F7CB01B0
:1005F000809584238BBB089598EF980F983000F571
:10060000613069F448B321E030E0B90102C0660FFF
:10061000771F9A95E2F7CB01842B88BB089561116F
:1006200056C048B3885021E030E0B90102C0660FDF
:10063000771F8A95E2F7CB018095842388BB0895C4
:1006400090EF980F983000F5613069F445B321E0E0
:1006500030E0B90102C0660F771F9A95E2F7CB012F
:10066000842B85BB0895611132C045B3805121E0D0
:1006700030E0B90102C0660F771F8A95E2F7CB011F
:100680008095842385BB089598EE980F9830F8F4F0
:10069000613069F442B321E030E0B90102C0660F75
:1006A000771F9A95E2F7CB01842B82BB08956111E5
:1006B0000EC042B3885121E030E0B90102C0660F9C
:1006C000771F8A95E2F7CB018095842382BB08953A
:1006D0008830F8F4613069F44AB321E030E0B901C0
:1006E00002C0660F771F8A95E2F7CB01842B8ABB85
:1006F0000895611179C04AB321E030E0B90102C028
:10070000660F771F8A95E2F7CB01809584238ABB19
:10071000089598EF980F983000F5613069F447B369
:1007200021E030E0B90102C0660F771F9A95E2F729
:10073000CB01842B87BB0895611156C047B3885005
:1007400021E030E0B90102C0660F771F8A95E2F719
:10075000CB018095842387BB089590EF980F983044
:1007600000F5613069F444B321E030E0B90102C022
:10077000660F771F9A95E2F7CB01842B84BB08950F
:10078000611132C044B3805121E030E0B90102C0B0
:10079000660F771F8A95E2F7CB018095842384BB8F
:1007A000089598EE980F9830F8F4613069F441B3E9
:1007B00021E030E0B90102C0660F771F9A95E2F799
:1007C000CB01842B81BB089561110EC041B38851C8
:1007D00021E030E0B90102C0660F771F8A95E2F789
:1007E000CB018095842381BB0895883058F429B3C8
:1007F00030E0A90102C0559547958A95E2F7CA01F4
:100800008170089598EF980F983058F426B330E02F
:10081000A90102C0559547959A95E2F7CA018170E2
:10082000089590EF980F983058F423B330E0A90161
:1008300002C0559547959A95E2F7CA0181700895CF
:1008400098EE980F983058F420B330E0A90102C018
:10085000559547959A95E2F7CA018170089580E011
:100860000895413029F4FC012081622B60830895B2
:10087000411105C0FC0120816095622360830895C9
:10088000413029F4FC012081622B608308954111DD
:1008900005C0FC0120816095622360830895CF9399
:1008A000C82FDB01CA01880F991FAA1FBB1F880F21
:1008B000991FAA1FBB1F9C01AD01220F331F441FAC
:1008C000551F220F331F441F551F60E072E18AE756
:1008D00090E00E94431B21503109CC2319F0C13014
:1008E00051F013C03093900029B988E18AB986E0AD
:1008F000809395000AC0309398002093990088E176
:1009000080939A0086E080939D00579A7894CF91C7
:100910000895882319F0813029F008955D9BFECF5A
:100920006CB90895EBE9F0E0808185FFFDCF60931D
:100930009C0008951F93CF93DF93EB01688166239A
:1009400039F0182F2196812FE4DF69916111FBCFD7
:10095000DF91CF911F910895CF93DF938FE090E0C7
:1009600063D1EC01009739F0FC01119211921192C0
:100970001192CF018DD1CE01DF91CF9108952F92A9
:100980003F924F925F926F927F928F929F92AF921F
:10099000BF92CF92DF92EF92FF920F931F93CF936C
:1009A000DF93EC014A015B01622E702E85D728800F
:1009B00039804A805B8001110DC081E0B201A10144
:1009C000482159216A217B21452B462B472B79F45D
:1009D00080E00DC081E0B201A101482159216A21C6
:1009E0007B21481559056A057B0509F080E08823BD
:1009F00081F0662009F46BC080949094A094B09428
:100A000082209320A420B52088829982AA82BB826A
:100A10005EC0C114D104E104F10409F458C0662099
:100A200029F040E050E060E071E003C040E050E0B9
:100A3000BA0171107460482959296A297B299701E4
:100A40008601CE0104960E949C0E0E943A0D8111EF
:100A500001C058D20E94561091FD35C00FB6F894CF
:100A60000F92688179818A819B8171100DC021E08C
:100A700075016401C622D722E822F922CD28CE28AA
:100A8000CF2879F420E00DC021E075016401C62271
:100A9000D722E822F922C814D904EA04FB0409F099
:100AA00020E0222371F0662061F080949094A0945D
:100AB000B09486229722A822B92288829982AA829B
:100AC000BB820F900FBE1B012C01552401C0D2D751
:100AD000C201B101DF91CF911F910F91FF90EF9073
:100AE000DF90CF90BF90AF909F908F907F906F904E
:100AF0005F904F903F902F9008954F925F926F922A
:100B00007F928F929F92AF92BF92CF92DF92EF929D
:100B1000FF920F931F93CF93DF93EC016A017B0148
:100B20008C01095F1F4FC8D6EB85FC8588819981B0
:100B3000AA81BB81C82AD92AEA2AFB2AC882D9827B
:100B4000EA82FB820E171F0709F445C0C12CD12C85
:100B5000760199249394812CA480B5808081918121
:100B6000A281B381AC01BD017727B2FD0FC04880DF
:100B700059806A807B804422552266227722292D63
:100B800045284628472889F4282D0FC048805980D9
:100B90006A807B804422552266227722292D4416C2
:100BA00055066606770609F0282D222371F0B0FF5E
:100BB00004C0C42AD52AE62AF72A488159816A81C5
:100BC0007B817260CF010E94130FEA2DFB2D0E175F
:100BD0001F0711F603C0C12CD12C7601C094D0940C
:100BE000E094F09488819981AA81BB81C822D9229E
:100BF000EA22FB22C882D982EA82FB823BD7688143
:100C000079818A819B81DF91CF911F910F91FF9014
:100C1000EF90DF90CF90BF90AF909F908F907F909C
:100C20006F905F904F900895CF93DF93EC0144D67F
:100C300080917C0390917D03892B31F481E893E0CE
:100C400090937D0380937C0320917E0330917F03FA
:100C5000C9018C0F9D1F83354BE0940770F4281752
:100C6000390770F4C0917C03D0917D03C20FD31F6C
:100C700090937F0380937E0305C0C0E0D0E002C064
:100C8000C0E0D0E0F7D6CE01DF91CF91089508956E
:100C9000FC010396928381834FEF5FEFBA01438398
:100CA00054836583768390878783928781871082B8
:100CB0000895FC01138612860895CF93DF939C015B
:100CC000FB01DC011196CD91DC911297D583C48391
:100CD0008E819F81978386838E819F81DC0115960B
:100CE0007C936E9314977F836E8333872287F901F9
:100CF00080818F5F8083DF91CF9108950F931F9341
:100D0000CF93DF93EB01088119812A813B810F3F4B
:100D10004FEF14072407340721F4FC01A185B285A5
:100D200011C0DC01139601C0DF011496ED91FC9116
:100D30001597408151816281738104171507260739
:100D4000370790F71496ED91FC911597FD83EC838E
:100D5000D783C683BF83AE831596DC93CE93149757
:100D60009B878A87FC0120812F5F2083DF91CF91B1
:100D70001F910F910895CF93DF93FC01A285B38556
:100D8000C481D581868197819F838E83C681D781D7
:100D9000848195819D838C8311968D919C9112976E
:100DA000E817F90731F48681978112969C938E9308
:100DB0001197138612868C9181508C93DF91CF917D
:100DC000089531E1FC013083319722E2208331978D
:100DD000A3E3A083319760833197708331971082AA
:100DE000319760E8608331971082319762E06083C9
:100DF000319763E06083319764E06083319765E009
:100E00006083319766E06083319767E06083319754
:100E100068E06083319769E06083319760E16083C7
:100E200031973083319732E13083319733E130832A
:100E3000319734E13083319735E13083319736E1B2
:100E40003083319737E13083319738E13083319700
:100E500039E13083319730E23083319731E23083AA
:100E600031972083319723E2208331974083319754
:100E70005083319726E22083319727E220833197F0
:100E800028E22083319729E22083319720E32083D1
:100E9000319721E32083869708951BBC8CE78ABD98
:100EA0008BE08EBD87B7806187BFA091ED0FB091B9
:100EB000EE0FCD91CDBFDD91DEBFFF91EF91DF91C0
:100EC000CF91BF91AF919F918F917F916F915F91E2
:100ED0004F913F912F911F910F91FF90EF90DF90D5
:100EE000CF90BF90AF909F908F907F906F905F90CA
:100EF0004F903F902F901F900F900FBE0F9008952E
:100F000081E008950F920FB6F8940F921F9211246A
:100F10002F923F924F925F926F927F928F929F9209
:100F2000AF92BF92CF92DF92EF92FF920F931F93F7
:100F30002F933F934F935F936F937F938F939F93E1
:100F4000AF93BF93CF93DF93EF93FF93A091ED0FF8
:100F5000B091EE0F0DB60D920EB60D9267D6A09120
:100F6000ED0FB091EE0FCD91CDBFDD91DEBFFF91C2
:100F7000EF91DF91CF91BF91AF919F918F917F9131
:100F80006F915F914F913F912F911F910F91FF9022
:100F9000EF90DF90CF90BF90AF909F908F907F9019
:100FA0006F905F904F903F902F901F900F900FBECB
:100FB0000F9008950F920FB6F8940F921F9211247C
:100FC0002F923F924F925F926F927F928F929F9259
:100FD000AF92BF92CF92DF92EF92FF920F931F9347
:100FE0002F933F934F935F936F937F938F939F9331
:100FF000AF93BF93CF93DF93EF93FF93A091ED0F48
:10100000B091EE0F0DB60D920EB60D925BD481111C
:101010000DD6A091ED0FB091EE0FCD91CDBFDD912A
:10102000DEBFFF91EF91DF91CF91BF91AF919F9183
:101030008F917F916F915F914F913F912F911F9170
:101040000F91FF90EF90DF90CF90BF90AF909F9067
:101050008F907F906F905F904F903F902F901F9058
:101060000F900FBE0F900895A5DF18951F93CF9393
:10107000DF93EC01142F48A141110BC088819981A5
:10108000892B09F044C08A819B81D0D71B821A82A8
:1010900045C0111117C050E08C819D810E949A1BA0
:1010A00028A18C819D81820F911D9D838C832A8133
:1010B0003B818217930768F1888199819D838C8396
:1010C00080E02CC050E08E819F810E949A1B88A1F5
:1010D00090E09195819591092E813F81280F391FCC
:1010E0003F832E83488159812417350730F42A81A4
:1010F0003B81820F931F9F838E83123061F48E8D0C
:10110000882359F08E8D81508E8F80E007C080E05B
:1011100005C080E003C080E001C080E09E8D9F5F3D
:101120009E8FDF91CF911F910895FC0140A1442330
:10113000A9F050E026813781240F351F378326839D
:10114000828193812817390720F0808191819783CC
:101150008683CB01668177810C949A1B08950F9347
:101160001F93CF93DF93EC010FB6F8940F928AA1EF
:101170001816ACF48B89811105C011C08B898111BF
:1011800004C00DC08E010D5E1F4FC8010AD681112B
:10119000EBD68AA181508AA38AA118167CF38FEF1F
:1011A0008AA30F900FBE0FB6F8940F9289A118165C
:1011B000ACF48885811105C011C08885811104C0F7
:1011C0000DC08E01085F1F4FC801EBD58111CCD631
:1011D00089A1815089A389A118167CF38FEF89A377
:1011E0000F900FBEDF91CF911F910F910895CF9374
:1011F000DF93EC010FB6F8940F924881598128A132
:1012000030E07F8D729FC001739F900D1124FA0111
:10121000E80FF91FFB83EA831E8E5D834C83821BDC
:10122000930B840F951F9F838E838FEF89A38AA3CF
:1012300061110AC08885882369F0CE010896B1D56E
:10124000813041F45FDE06C0CE01089621DDCE017B
:1012500043961EDD0F900FBE81E0DF91CF91089580
:101260000F931F93CF93DF938823E1F0062F182F5E
:1012700083E290E0D9DCEC01892BB1F0109FC00132
:1012800011240196D1DC99838883892B31F01F8F3B
:1012900008A361E0CE01ABDF07C0CE01F8DCC0E0FF
:1012A000D0E002C0C0E0D0E0CE01DF91CF911F912D
:1012B0000F9108959F92AF92BF92CF92DF92EF92DB
:1012C000FF920F931F93CF93DF93CDB7DEB729978C
:1012D0000FB6F894DEBF0FBECDBF7C015B012E833D
:1012E0003F834887598710E0992493946C0188E0E4
:1012F000C80ED11C0FB6F8940F92F701968D878D0A
:10130000981710F00230A9F4402FB501C701AEDEE6
:10131000F7019389992339F0C701439642D581306B
:1013200021F4F0DD02C08111EDDD0F900FBE81E0F0
:101330004BC08E819F81A885B985892B8A2B8B2BE9
:1013400021F40F900FBE80E03FC0111104C0CE0108
:1013500001969FD5192D0F900FBEAED20FB6F894FF
:101360000F92F70181A18F3F09F411A2F70182A129
:101370008F3F09F412A20F900FBEBE016A5F7F4F2C
:10138000CE01019697D581111BC00FB6F8940F922C
:10139000F701968D0F900FBE878D98130DC04E816B
:1013A0005F8168857985C6019FD4C701D8DE62D385
:1013B0008111A0CFA7DD9ECFC701D1DE5BD39ACF2D
:1013C000C701CDDE57D380E029960FB6F894DEBF73
:1013D0000FBECDBFDF91CF911F910F91FF90EF9086
:1013E000DF90CF90BF90AF909F9008959F92AF9263
:1013F000BF92CF92DF92EF92FF920F931F93CF9302
:10140000DF93CDB7DEB729970FB6F894DEBF0FBED6
:10141000CDBF7C015B012E833F834887598710E055
:10142000992493946C0183E1C80ED11C0FB6F894F3
:101430000F92F701868D882369F1C680D780B501A8
:10144000C70173DE011117C0F701868D8150868FA9
:1014500080819181892B21F453D6F7019383828374
:10146000F7018085882391F0C70108969AD48130CE
:1014700069F448DD0BC0F701D782C68283898823CF
:1014800029F0C70143968DD481113CDD0F900FBE2A
:1014900081E056C08E819F81A885B985892B8A2BD2
:1014A0008B2B21F40F900FBE80E04AC0111104C0B5
:1014B000CE010196EED4192D0F900FBEFDD10FB6BF
:1014C000F8940F92F70181A18F3F09F411A2F7015F
:1014D00082A18F3F09F412A20F900FBEBE016A5F76
:1014E0007F4FCE010196E6D4811126C00FB6F89445
:1014F0000F92F701868D0F900FBE811119C0808168
:101500009181892B41F40FB6F8940F9282819381D7
:101510002FD50F900FBE4E815F8168857985C601FA
:10152000E3D3C7011CDEA6D2811180CFEBDC7ECFD6
:10153000C70115DE9FD27ACFC70111DE9BD280E0B2
:1015400029960FB6F894DEBF0FBECDBFDF91CF91C5
:101550001F910F91FF90EF90DF90CF90BF90AF90D1
:101560009F900895E091F90EF091FA0E808181111B
:101570000CC08FEF9FEFDC0180930C0190930D0165
:10158000A0930E01B0930F010895E091F90EF09130
:10159000FA0E0780F085E02D0084F185E02D828130
:1015A0009381A481B58180930C0190930D01A09348
:1015B0000E01B0930F010895CF92DF92EF92FF9248
:1015C0006B017C01E091ED0FF091EE0F628373836C
:1015D000848395838091DB0E9091DC0EA091DD0ECB
:1015E000B091DE0EC816D906EA06FB0660F46091DB
:1015F000ED0F7091EE0F8091F70E9091F80E6E5FE7
:101600007F4F7CDB20C06091ED0F7091EE0F8091D9
:10161000F90E9091FA0E6E5F7F4F70DB80910C0196
:1016200090910D01A0910E01B0910F01C816D9063D
:10163000EA06FB0640F4C0920C01D0920D01E09244
:101640000E01F0920F01FF90EF90DF90CF90089580
:101650004F925F926F927F928F929F92AF92BF92C2
:10166000CF92DF92EF92FF920F931F93CF93DF936E
:101670004C01EB015A01290183E390E0D5DA3C01EA
:10168000009709F4DAC0C114D10409F0D2C0C50131
:10169000CBDAF301948F838F892B19F4C301F7DA26
:1016A000CCC0F1E0AF1AB108F301838D948DA80E80
:1016B000B91E8881858F8881882381F0D3015E9649
:1016C000FE0131969E012C5E3F4FEF0181918D937B
:1016D0008881882319F02E173F07B9F7F30110AA64
:1016E000102F043108F013E1F301128F11AB12AA8D
:1016F000E3012296CE01DDDAC3010E96DADAF301B8
:101700007386628684E190E0A0E0B0E0811B9109DD
:10171000A109B10986879787A08BB18B778A668AE2
:10172000A201B401C5014DDBF30191838083E11473
:10173000F10419F0F701718260820FB6F8940F92EC
:101740008091DF0E8F5F8093DF0E8091ED0F90917F
:10175000EE0F892BB1F57092EE0F6092ED0F809134
:10176000DF0E813009F03CC00F2EF1E1EF2EFFE0DB
:10177000FF2EF02D0F2EFDEECF2EFFE0DF2EF02DF1
:10178000C70186DAFBE0EF0EF11CCE14DF04C1F7CF
:1017900086E09FE07DDA8BEF9EE07ADA8CEE9EE0C9
:1017A00077DA81EE9EE074DA86E09FE09093FA0E9D
:1017B0008093F90E8BEF9EE09093F80E8093F70ED6
:1017C0000FC08091D90E81110BC0E091ED0FF09107
:1017D000EE0F828D081720F07092EE0F6092ED0FE1
:1017E0008091D50E8F5F8093D50EF301828D9091FD
:1017F000DA0E981710F48093DA0EFBE08F9FC00189
:101800001124BE018F5E904F58DA0F900FBE809169
:10181000D90E882351F0E091ED0FF091EE0F828DFB
:10182000801728F46FDB81E009C081E007C081E008
:1018300005C0FC01D48EC38E34CF8FEFDF91CF91E2
:101840001F910F91FF90EF90DF90CF90BF90AF90DE
:101850009F908F907F906F905F904F900895AF9280
:10186000BF92CF92DF92EF92FF920F93A12CB12CF7
:10187000C12CD12CE12CF12C00E020E030E045E53A
:1018800050E061E571E08FED9DE0E2DE813061F4D2
:10189000F8948093D90E1092DB0E1092DC0E109209
:1018A000DD0E1092DE0EF9DA0F91FF90EF90DF90CF
:1018B000CF90BF90AF9008958091D40E8F5F8093AA
:1018C000D40E08959F92AF92BF92CF92DF92EF9283
:1018D000FF920F931F93CF93DF938091D40E8111CA
:1018E000B0C08091DB0E9091DC0EA091DD0EB09126
:1018F000DE0E0196A11DB11D8093DB0E9093DC0ED0
:10190000A093DD0EB093DE0EC090DB0ED090DC0E07
:10191000E090DD0EF090DE0EC114D104E104F1047C
:10192000B1F48091F90E9091FA0E2091F70E30915A
:10193000F80E3093FA0E2093F90E9093F80E8093E0
:10194000F70E8091D60E8F5F8093D60E0BDE8091BE
:101950000C0190910D01A0910E01B0910F01C816DC
:10196000D906EA06FB0610F4B12C5AC0B12C0F2E92
:10197000FBE0AF2EF02D99249394E091F90EF091B5
:10198000FA0E808181110CC08FEF9FEFDC018093F4
:101990000C0190930D01A0930E01B0930F0140C074
:1019A000E091F90EF091FA0E0780F085E02DC085E8
:1019B000D1858A819B81AC81BD81C816D906EA0692
:1019C000FB0648F480930C0190930D01A0930E0147
:1019D000B0930F0125C08E010E5F1F4FC801CBD9F8
:1019E000888D998D892B19F0CE010E96C4D98A8DD8
:1019F0009091DA0E981710F48093DA0EA89EC00129
:101A00001124B8018F5E904F58D9E091ED0FF091FD
:101A1000EE0F9A8D828D981708F4AFCFB92CADCF09
:101A2000E091ED0FF091EE0FE28D8BE0E89FF00179
:101A30001124EF5EF04F8081823048F0BB24B394D4
:101A400006C08091D80E8F5F8093D80EB12C809104
:101A5000D70E882311F0BB24B3948B2DDF91CF9147
:101A60001F910F91FF90EF90DF90CF90BF90AF90BC
:101A70009F900895CF92DF92EF92FF920F931F9362
:101A8000CF93DF930FB6F8940F928091D40E8150CC
:101A90008093D40E8091D40E81115AC08091DF0EB4
:101AA000811129C058C0D7011796ED91FC91189764
:101AB000C085D185CE010E965ED98E010E5F1F4F77
:101AC000C80159D98A8D9091DA0E981710F4809335
:101AD000DA0ED89EC0011124B8018F5E904FEDD868
:101AE000E091ED0FF091EE0F9A8D828D981778F0BE
:101AF000C092D70E0CC00F2EFCEEEF2EFEE0FF2E94
:101B0000F02D0F2EFBE0DF2EF02DCC24C394F70137
:101B100080818111C8CF8091D80E882391F0809167
:101B2000D80E882371F0C1E0CDDE8111C093D70EAD
:101B30008091D80E81508093D80E8091D80E81115B
:101B4000F3CF8091D70E813029F4DCD981E003C036
:101B500080E001C080E00F900FBEDF91CF911F9118
:101B60000F91FF90EF90DF90CF900895CF92DF928A
:101B7000EF92FF926B017C01672B682B692BC9F0F8
:101B80009BDE8091DB0E9091DC0EA091DD0EB0917A
:101B9000DE0EC80ED91EEA1EFB1E8091ED0F90913D
:101BA000EE0F0296E8D8C701B60106DD63DF8111AA
:101BB00001C0A8D9FF90EF90DF90CF90089501EE7B
:101BC0001EE00F2EF1E1EF2EFFE0FF2EF02D24C0DE
:101BD00073DED801CC914EDFCC23F1F00FB6F89430
:101BE0000F92D8011796ED91FC911897C085D18579
:101BF000CE010296C0D88091DF0E81508093DF0E17
:101C00008091E00E81508093E00E0F900FBE8B8D7F
:101C10009C8D3DD8CE013BD88091E00E8111D8CF6C
:101C2000F70180818230C0F36DD9F6CF8091D40E58
:101C3000882321F081E08093D70E08951092D70E6B
:101C4000E091DA0E4BE0E49FF0011124EF5EF04FDB
:101C50008081811110C09BE08091DA0E81508093C9
:101C6000DA0EE091DA0E9E9FF0011124EF5EF04F44
:101C70008081882389F38091DA0E282F30E04BE0B1
:101C8000849FC0011124DC01AF5EB04F1196ED912D
:101C9000FC9112970480F581E02D1296FC93EE934F
:101CA00011978C5E904FE817F90761F48481958154
:101CB0004BE0429FF001439FF00D1124EF5EF04F87
:101CC000928381838BE0829FF001839FF00D11242A
:101CD000EF5EF04F0180F281E02D80859185909339
:101CE000EE0F8093ED0F0895CF92DF92EF92FF9267
:101CF0006A017B016091ED0F7091EE0F625F7F4F83
:101D00000E947E068091ED0F9091EE0F029633D8DF
:101D10008091DB0E9091DC0EA091DD0EB091DE0E75
:101D2000BC01CD016C0D7D1D8E1D9F1D45DCFF90FE
:101D3000EF90DF90CF900895CF92DF92EF92FF92D5
:101D40000F931F9368017901E091ED0FF091EE0F71
:101D5000706846875787608B718B6091ED0F70912B
:101D6000EE0F625F7F4F0E945D068091ED0F9091B4
:101D7000EE0F029600D88091DB0E9091DC0EA091C0
:101D8000DD0EB091DE0EBC01CD016C0D7D1D8E1DF2
:101D90009F1D12DC1F910F91FF90EF90DF90CF906D
:101DA00008950F931F93CF93DF93DC011796ED9166
:101DB000FC911897C085D1858E01025F1F4FC80125
:101DC0000E94BB068091D40E811116C00C501109DF
:101DD000C8010E94BB068A8D9091DA0E981710F404
:101DE0008093DA0EBBE08B9FC0011124B8018F5E97
:101DF000904F0E945D0605C0B8018CEE9EE00E94E7
:101E00005D06E091ED0FF091EE0F9A8D828D8917AE
:101E100020F481E08093D70E01C080E0DF91CF9164
:101E20001F910F9108950F931F93CF93DF937068C5
:101E3000FC014083518362837383C085D1850E94F6
:101E4000BB068E010E5F1F4FC8010E94BB068A8D24
:101E50009091DA0E981710F48093DA0EFBE08F9FC2
:101E6000C0011124B8018F5E904F0E945D06E09181
:101E7000ED0FF091EE0F9A8D828D891720F481E09D
:101E80008093D70E01C080E0DF91CF911F910F9119
:101E900008952091D60EFC0120834091DB0E5091D5
:101EA000DC0E6091DD0E7091DE0E41835283638300
:101EB000748308958F929F92AF92BF92CF92DF92D8
:101EC000EF92FF920F931F93FC01DB010FB6F89482
:101ED0000F924091DB0E5091DC0E6091DD0E7091FF
:101EE000DE0E8091D60E9081981749F00181128103
:101EF00023813481401751076207730728F5C18099
:101F0000D280E380F4800D911D912D913C91139727
:101F10004A015B018C189D08AE08BF088016910627
:101F2000A206B30698F4CF01C41AD50AE60AF70A46
:101F30000C0D1D1D2E1D3F1D0D931D932D933C93C8
:101F40001397A7DF80E003C081E001C081E00F901C
:101F50000FBE1F910F91FF90EF90DF90CF90BF9039
:101F6000AF909F908F90089581E08093D70E089551
:101F70000F931F93CF93DF93FC01892B09F451C07A
:101F8000828DA091ED0FB091EE0F5A969C9189171A
:101F900008F047C04685578560897189772394F09A
:101FA000A091ED0FB091EE0F5A969C9144E150E054
:101FB00060E070E0491B5109610971094687578744
:101FC000608B718B2BE0829FC00111248F5E904F3C
:101FD0002485358528173907E9F48F01EF0122960A
:101FE000CE010E94BB06E091ED0FF091EE0F828DC5
:101FF000F801828F9091DA0E981710F48093DA0E20
:10200000FBE08F9FC0011124BE018F5E904F0E94A4
:102010005D0607C0A091ED0FB091EE0F5A968C911E
:10202000828FDF91CF911F910F9108950F931F938E
:10203000CF93DF93FC01892B79F182A9815082AB88
:10204000228D91A9291751F181112AC0EF018F0129
:102050000E5F1F4FC8010E94BB0689A98A8F44E109
:1020600050E060E070E0481B5109610971094E873A
:102070005F87688B798B9091DA0E981710F48093B4
:10208000DA0E2BE0829FC0011124B8018F5E904FC1
:102090000E945D0681E005C080E003C080E001C0D1
:1020A00080E0DF91CF911F910F910895CF92DF9241
:1020B000EF92FF92E091ED0FF091EE0F668577853C
:1020C00080899189E091ED0FF091EE0FA091ED0FD5
:1020D000B091EE0F5A962C910F2EF4E1CF2ED12C09
:1020E000E12CF12CF02DC21AD108E108F108C686C6
:1020F000D786E08AF18AFF90EF90DF90CF90089525
:102100008091ED0F9091EE0F892B39F0E091ED0F5A
:10211000F091EE0F82A98F5F82AB8091ED0F9091CD
:10212000EE0F0895CF93DF93EC0160E080E00E9412
:102130008904FE0101900020E9F73197BF016C1B73
:102140007D0B80E00E948904BE0180E00E949A0419
:10215000DF91CF910895EF92FF920F931F93CF934A
:10216000DF938C01C0E1D1E009900020E9F72197CD
:10217000CE01805191407C01F80101900020E9F7E7
:102180003197EF01C01BD10B60E180E00E94890410
:102190006C2F6E0D685F80E00E94890480E191E001
:1021A000C1DF64E080E00E94890462E080E00E9478
:1021B00089046FEF80E00E9489046FEF80E00E9445
:1021C0008904C801AFDFDF91CF911F910F91FF907C
:1021D000EF900895CF92DF92EF92FF920F931F93AB
:1021E000CF93DF936C017B01142FFC010190002041
:1021F000E9F73197E81BF90BC2E0C40FCE0F60E39B
:1022000080E00E9489046C2F80E00E948904C6014E
:1022100089DF112379F0E7011150012F10E00F5FE2
:102220001F4F0E0D1F1D699180E00E948904C01789
:10223000D107C9F7DF91CF911F910F91FF90EF90D8
:10224000DF90CF9008950F931F93CF93DF938C016E
:10225000FC0101900020E9F73197EF01C81BD90B71
:1022600062E880E00E9489046C2F6B5F80E00E942E
:1022700089046091160180E00E9489046091150133
:1022800080E00E94890480911501909116010196C9
:102290009093160180931501C80144DF60E080E04F
:1022A0000E948904DF91CF911F910F910895CF93E0
:1022B000DF93CDB7DEB728970FB6F894DEBF0FBE19
:1022C000CDBF0F2EFCE1AF2EF1E0BF2EF02DCE01E1
:1022D00001963C014E0195E0890E911C0F2EF6E906
:1022E000CF2ED12CE12CF12CF02D00E021E04DED92
:1022F00053E660E070E08091F70F9091F80F0E9434
:10230000BF046B017C0171FF3AC0F50181A9811105
:10231000D4C046E551E061E081E00E948002F50111
:1023200025A530E040E050E06CE081E00E94BB0277
:1023300047E651E061E082E00E948002F50127A5B6
:1023400030E040E050E067E082E00E94BB0248E7F6
:1023500051E061E083E00E9480024AE351E067E0DF
:1023600083E00E94800249E851E061E084E00E943D
:102370008002A50166E084E00E9480029EC075FF95
:1023800019C04AE951E061E081E00E9480024BEA15
:1023900051E061E082E00E9480024CEB51E061E09C
:1023A00083E00E9480024DEC51E061E084E00E94F5
:1023B000800283C076FF19C04EED51E061E081E0FC
:1023C0000E9480024FEE51E061E082E00E948002B4
:1023D00040E052E061E083E00E9480024DEC51E079
:1023E00061E084E00E94800268C070FF25C041E186
:1023F00052E061E081E00E9480024CEB51E061E03C
:1024000082E00E94800242E252E069E082E00E94A3
:1024100080024BE251E06DE082E00E94800247E2E0
:1024200052E061E083E00E9480024DEC51E061E007
:1024300084E00E94800241C067FF19C048E352E077
:1024400061E081E00E9480024CEB51E061E082E0BB
:102450000E94800247E252E061E083E00E94800235
:102460004DEC51E061E084E00E94800226C066FFEE
:1024700024C049E452E061E081E00E9480024AE524
:1024800052E061E082E00E9480024BE652E061E0AF
:1024900083E00E94800249E452E061E084E00E940F
:1024A00080026CEB72E080E090E060DB0E9413023F
:1024B0006CE271E080E090E059DBC2FE23C049ECA1
:1024C00051E06CE081E00E948002F50125A530E03A
:1024D00040E050E06CE081E00E94BB02F50185A580
:1024E0004AE050E0B30190E00E94BE1BF30101906E
:1024F0000020E9F73197AF0146195709B3018CE77E
:1025000092E068DEC4FE23C049EC51E067E082E05F
:102510000E948002F50127A530E040E050E067E02E
:1025200082E00E94BB02F50187A54AE050E0B401B9
:1025300090E00E94BE1BF40101900020E9F7319762
:10254000AF0148195909B40183E892E043DEC3FEA4
:1025500019C049EC51E067E083E00E9480024AE341
:1025600051E067E083E00E948002EAE3F1E001903D
:102570000020E9F7AF014B5351406AE371E08BE86B
:1025800092E028DEC0FE17C046EC51E066E084E031
:102590000E948002A50166E084E00E948002F501AD
:1025A00001900020E9F73197AF014C515140B5013E
:1025B00081E992E00FDE0F2EF6E9CF2ED12CE12C2F
:1025C000F12CF02D00E021E043E050E060E070E00D
:1025D0008091F50F9091F60F0E94BF0460FF28C014
:1025E00048E952E061E081E00E9480024CEB51E05A
:1025F00061E082E00E94800242E252E069E082E013
:102600000E948002F50126A530E040E050E06DE038
:1026100082E00E94BB0247E252E061E083E00E9458
:1026200080024DEC51E061E084E00E94800229C00C
:1026300061FF27C049EA52E061E081E00E94800228
:102640004CEB51E061E082E00E94800242E252E005
:1026500069E082E00E948002F50120A930E040E0BC
:1026600050E06DE082E00E94BB0247E252E061E090
:1026700083E00E9480024DEC51E061E084E00E9422
:10268000800264E670E080E090E070DA27CE8AE1B4
:102690000E94F503882351F040E650E060E070E0CE
:1026A0008091F70F9091F80F0E947D0564EF71E023
:1026B00080E090E05BDAEBCFCF93DF93CDB7DEB76E
:1026C00065970FB6F894DEBF0FBECDBF8DE0E1EC8D
:1026D000F2E0DE01119601900D928A95E1F788E013
:1026E000EEECF2E0DE011E9601900D928A95E1F784
:1026F00010E04E018EE0880E911C0F2EFCE16F2E33
:10270000F1E07F2EF02DFE0131965F010F2EF4EFE8
:10271000CF2EDD24D394E12CF12CF02D00E021E02C
:1027200040E250E060E070E08091F70F9091F80F88
:102730000E94BF0465FF24C061E08BE10E94DB02C0
:1027400061E08FE00E94DB0268E572E080E090E0EB
:102750000DDA60E08FE00E94DB0266E970E080E065
:1027600090E004DAF50101900020E9F73197AF011C
:102770004A195B09B5018AEB92E02CDD11E023C018
:102780001130C9F4F40101900020E9F73197AF014D
:1027900048195909B4018AEB92E01CDDF30111AA32
:1027A00040E052E060E070E08091F70F9091F80F08
:1027B0000E947D0510E060E08BE10E94DB0260E09A
:1027C0008FE00E94DB0260E971E080E090E0CED90A
:1027D0009DCFCF93DF93CDB7DEB76F970FB6F89449
:1027E000DEBF0FBECDBF8FE0E6EDF2E0DE01119659
:1027F00001900D928A95E1F780E1E5EEF2E0DE01CD
:10280000509601900D928A95E1F70F2EFCE1AF2EC4
:10281000F1E0BF2EF02D3E0180E1680E711CFE013B
:1028200031964F01CC24CA94DC2C760100E021E0E3
:1028300040E050E160E070E08091F70F9091F80F78
:102840000E94BF0474FFEECFF50197A580A99817E9
:1028500088F4F40101900020E9F73197AF0148199D
:102860005909B40183E892E0B5DC61E08DE10E9492
:10287000DB0210C0F30101900020E9F73197AF01AE
:1028800046195709B30183E892E0A4DC60E08DE1CA
:102890000E94DB0268E873E180E090E067D9C2CF74
:1028A000CF93DF93CDB7DEB76D970FB6F894DEBF49
:1028B0000FBECDBF8EE0E5EFF2E0DE011196019094
:1028C0000D928A95E1F78FE0E3E0F3E0DE011F96D9
:1028D00001900D928A95E1F70F2EFCE1AF2EF1E009
:1028E000BF2EF02D3E018FE0680E711CFE01319667
:1028F0004F01CC24CA94DC2C760100E021E040E0BA
:1029000058E060E070E08091F70F9091F80F0E941E
:10291000BF0473FFEECFF50195A586A5981788F43F
:10292000F40101900020E9F73197AF0148195909E6
:10293000B4018CE792E04EDC61E08CE10E94DB02A6
:1029400010C0F30101900020E9F73197AF0146195B
:102950005709B3018CE792E03DDC60E08CE10E9416
:10296000DB0264EF71E080E090E000D9C2CFE0913B
:10297000F90F8E2F90E0FC01F097E830F10550F54B
:10298000EA5BFF4FA2C660E08FE10E94DB0222C03B
:1029900061E08FE10E94DB021DC061E08EE10E94D8
:1029A000DB0218C060E08EE10E94DB0213C061E030
:1029B00083E10E94DB020EC060E083E10E94DB0243
:1029C00009C061E08DE10E94DB0204C060E08DE19E
:1029D0000E94DB026CE271E080E090E0C7D8C7CFD4
:1029E000CF93DF93CDB7DEB72F970FB6F894DEBF46
:1029F0000FBECDBF87E0E2E1F3E0DE01119601906A
:102A00000D928A95E1F788E0E9E1F3E0DE0118969E
:102A100001900D928A95E1F768EE73E080E090E016
:102A2000A5D84E0188E0880E911CCE0101965C016C
:102A3000CC24CA94DC2C760100E021E040E054E094
:102A400060E070E08091F70F9091F80F0E94BF0452
:102A500072FF2BC08CE191E050D68C018BE291E0AB
:102A60004CD6801791078CF461E083E10E94DB0271
:102A7000F50101900020E9F73197AF014A195B0990
:102A8000B50181E992E0A6DB10C060E083E10E941D
:102A9000DB02F40101900020E9F73197AF014819FA
:102AA0005909B40181E992E095DB68EE73E080E0BA
:102AB00090E05CD8BDCFCF93DF93CDB7DEB76E97F4
:102AC0000FB6F894DEBF0FBECDBFBE016F5F7F4F64
:102AD000CE0140960E9470016CE171E0CE0101963A
:102AE0003DD6892BF1F0BE016F5F7F4F8CE191E005
:102AF0003ED680914D0181110AC041E050E060E076
:102B000070E08091F70F9091F80F0E947D0540E0F2
:102B100054E060E070E08091F70F9091F80F0E9410
:102B20007D056AE371E0CE01409618D6892BA1F0AD
:102B3000BE01605F7F4F8AE391E019D680914D011D
:102B400081110AC048E050E060E070E08091F70F2A
:102B50009091F80F0E947D0560E177E280E090E0BF
:102B600005D8B3CF0F2EF7E9CF2EDD24D394E12C77
:102B7000F12CF02DCCE1D1E081E090E00E94CF0279
:102B80009C01A4E6B0E0AAD5A70196017CD58FA54B
:102B900090E082179307C1F02FA789A981110AC07D
:102BA00040E150E060E070E08091F70F9091F80F05
:102BB0000E947D0540E050E160E070E08091F70FF9
:102BC0009091F80F0E947D0568EE73E080E090E040
:102BD0000E94B60DD1CF04E610E00F2EFBEFCF2EF2
:102BE000F3E0DF2EE12CF12CF02DCCE1D1E080E000
:102BF00090E00E94CF029C01A4E6B0E06FD5A7014F
:102C0000960141D5C801821B930B9C018DA590E0D4
:102C100028173907C1F02DA789A981110AC044E0FE
:102C200050E060E070E08091F70F9091F80F0E9403
:102C30007D0540E058E060E070E08091F70F9091F2
:102C4000F80F0E947D0560E177E280E090E00E944D
:102C5000B60DCDCFCF93DF9300D000D01F92CDB76C
:102C6000DEB7FE01319685E0DF011D928A95E9F716
:102C70000F2EFCE1EF2EF1E0FF2EF02D00E02FEF04
:102C80003FEFA90160E070E08091F10F9091F20FA9
:102C90000E94F609882391F324E630E040E050E0FA
:102CA000BE016F5F7F4F8091EF0F9091F00F0E94F8
:102CB000F609BE016F5F7F4F87E191E04FD5892B09
:102CC000B9F40E94130261E084E10E94DB0241E258
:102CD00053E061E082E00E94800268EB7BE080E0EC
:102CE00090E00E94B60D60E084E10E94DB020EC01D
:102CF0000E9413024FE253E061E082E00E948002F2
:102D000068EE73E080E090E00E94B60DF70111AA32
:102D100040E052E060E070E08091F70F9091F80F92
:102D20000E947D056CE271E080E090E00E94B60DAB
:102D3000A5CFCF93DF93CDB7DEB727970FB6F89423
:102D4000DEBF0FBECDBFFE01319687E0DF011D92D1
:102D50008A95E9F70F2EFCE1AF2EF1E0BF2EF02DA2
:102D60000F2EFAEFCF2ED12CE12CF12CF02D00E01C
:102D700021E04CE150E060E070E08091F50F90912F
:102D8000F60F0E94BF0462FF74C0F50181A987306D
:102D900009F059C110E00E94AB01882309F459C021
:102DA000833209F440C08A32B9F0E1E0F0E0EC0F80
:102DB000FD1FE10FF11D80831F5F482F612F82E00F
:102DC0000E94790264E670E080E090E00E94B60D17
:102DD000143008F447C037C1CE0101968ED4D50116
:102DE0009E968C939E9719821A821B82D1961C9272
:102DF00040E052E060E070E08091F70F9091F80FB2
:102E00000E947D0540E058E060E070E08091F70F9F
:102E10009091F80F0E947D0564E670E080E090E0FC
:102E20000E94B60D10C119821A821B82F50111AAE7
:102E300040E052E060E070E08091F70F9091F80F71
:102E40000E947D0564E670E080E090E00E94B60D8F
:102E5000FAC064E670E080E090E00E94B60D1430A5
:102E600008F0F1C0D501D1968C91873009F493CF49
:102E7000EAC063FF74C0F50181A9863009F0E3C0A0
:102E800010E00E94AB01882309F459C0833209F491
:102E900040C08A32B9F0E1E0F0E0EC0FFD1FE10F35
:102EA000F11D80831F5F482F612F82E00E9479020D
:102EB00064E670E080E090E00E94B60D143008F403
:102EC00047C0C1C0CE01019618D4D501D0968C93CD
:102ED000D09719821A821B82D1961C9240E052E050
:102EE00060E070E08091F70F9091F80F0E947D05EF
:102EF00040E050E160E070E08091F70F9091F80FB2
:102F00000E947D0564E670E080E090E00E94B60DCE
:102F10009AC019821A821B82F50111AA40E052E080
:102F200060E070E08091F70F9091F80F0E947D05AE
:102F300064E670E080E090E00E94B60D84C064E634
:102F400070E080E090E00E94B60D143008F07BC085
:102F5000D501D1968C91863009F493CF74C064FF6B
:102F600072C0F50181A9853009F06DC010E00E94A2
:102F7000AB01882309F459C0833209F440C08A3276
:102F8000B9F0E1E0F0E0EC0FFD1FE10FF11D8083EF
:102F90001F5F482F612F82E00E94790264E670E093
:102FA00080E090E00E94B60D143008F446C04BC09B
:102FB000BE016F5F7F4F8BE291E0D9D319821A82F5
:102FC0001B82D501D1961C9240E052E060E070E097
:102FD0008091F70F9091F80F0E947D0540E054E03A
:102FE00060E070E08091F70F9091F80F0E947D05EE
:102FF00064E670E080E090E00E94B60D24C0198283
:103000001A821B82F50111AA40E052E060E070E0F4
:103010008091F70F9091F80F0E947D0564E670E0B3
:1030200080E090E00E94B60D0EC064E670E080E0A3
:1030300090E00E94B60D143030F4D501D1968C91F9
:10304000853009F494CF68EC70E080E090E00E9455
:10305000B60D86CECF93DF9300D000D01F92CDB7B0
:10306000DEB7FE01319685E0DF011D928A95E9F712
:103070000F2EFCE1EF2EF1E0FF2EF02D0F2EF7E1E9
:10308000CF2EF1E0DF2EF02D00E028EE33E040E01F
:1030900050E060E070E08091F30F9091F40F0E9497
:1030A000F6098823C1F1F70181A98230A1F510E06A
:1030B0000E94AB01833209F494C0882309F460C0F4
:1030C0008A3209F49CC0E1E0F0E0EC0FFD1FE10F53
:1030D000F11D80831F5F482F612F82E00E947902DB
:1030E00021C08332F9F4D701D1961C9240E052E01E
:1030F00060E070E08091F70F9091F80F0E947D05DD
:1031000068EC70E080E090E00E94B60D04C0F7012A
:1031100081A9823069F268EC70E080E090E00E9462
:10312000B60DB2CF68EC70E080E090E00E94B60D82
:10313000153068F3F0CF00E02CE231E040E050E0E1
:10314000BE016F5F7F4F8091EF0F9091F00F0E9453
:103150005A0919821A821B821C8220E030E0A901E0
:1031600060E070E08091F10F9091F20F0E945A0997
:1031700068EC70E080E090E00E94B60D10E0C7CFF0
:10318000F60101900020E9F73197E751F140212F36
:1031900030E02E173F0779F2A4CF00E02CE231E0B7
:1031A00040E050E0BE016F5F7F4F8091EF0F909144
:1031B000F00F0E945A0919821A821B821C8220E099
:1031C00030E0A90160E070E08091F10F9091F20F82
:1031D0000E945A0968EC70E080E090E00E94B60D11
:1031E0009ACFF60101900020E9F73197E751F140BD
:1031F000212F30E02E173F0709F073CFCECF00E02C
:103200002CE231E040E050E0BE016F5F7F4F8091E3
:10321000EF0F9091F00F0E945A0919821A821B82B7
:103220001C8220E030E0A90160E070E08091F10FA5
:103230009091F20F0E945A0968EC70E080E090E0F3
:103240000E94B60D68CFCCE1D1E00F2EF5E0BF2E85
:10325000F02D0F2EF6E0CF2EF02D0F2EF7E0DF2E03
:10326000F02D6894EE24E1F8FF24F39414E089A98A
:10327000811111C00E94AB01882309F4BFC019ABB2
:1032800040E050E260E070E08091F70F9091F80F1D
:103290000E947D05B3C0843009F046C064E670E04A
:1032A00080E090E00E94B60D0E94AB01813331F0C6
:1032B000823311F1833209F0A1C02AC0E9AA40E8A3
:1032C00050E060E070E08091F70F9091F80F0E945D
:1032D0007D0568EC70E080E090E00E94B60D00E0B3
:1032E00020E030E0A90160E070E08091F30F909160
:1032F000F40F0E945A0982C0F9AA40E050E460E04D
:1033000070E08091F70F9091F80F0E947D0576C0D4
:1033100019AA40E052E060E070E08091F70F9091D0
:10332000F80F0E947D056AC0813009F067C064E62D
:1033300070E080E090E00E94B60D0E94AB01813306
:1033400051F020F4833209F44EC058C08233F9F0B2
:10335000833399F153C0B9AA40E051E060E070E0D6
:103360008091F70F9091F80F0E947D0540E150E0A9
:1033700060E070E08091F50F9091F60F0E947D055E
:1033800068EC70E080E090E00E94B60D37C0C9AAFA
:1033900042E050E060E070E08091F50F9091F60F10
:1033A0000E947D0548E050E060E070E08091F50FFC
:1033B0009091F60F0E947D0521C0D9AA41E050E00E
:1033C00060E070E08091F50F9091F60F0E947D050E
:1033D00044E050E060E070E08091F50F9091F60FCE
:1033E0000E947D050BC019AA40E052E060E070E049
:1033F0008091F70F9091F80F0E947D0562E370E0D5
:1034000080E090E00E94B60D32CFAF92BF92CF9293
:10341000DF92EF92FF920F930E9496010E94250285
:103420000E94CA0240E855E260E070E080E00E943D
:103430004F0461E084E10E94680361E08FE10E9433
:10344000680361E08EE10E9468030E94AC049093DF
:10345000F80F8093F70F0E94AC049093F60F8093BF
:10346000F50F40E052E060E070E08091F70F90913E
:10347000F80F0E947D05A12CB12CC12CD12CE12C80
:10348000F12C01E020E030E048EC50E060E070E03A
:1034900087E591E10E94280B09E020E030E044E656
:1034A00050E060E070E087E493E10E94280B0AE0BE
:1034B00020E030E045E550E060E070E08CE593E12D
:1034C0000E94280B60E08AE10E94680361E08BE1C2
:1034D0000E94680361E08FE00E94680302E020E040
:1034E00030E044E650E060E070E08BEE95E10E9451
:1034F000280B03E020E030E045E550E060E070E0BC
:1035000080E594E10E94280B61E08CE10E94680351
:1035100002E020E030E044E650E060E070E082EB62
:1035200095E10E94280B03E020E030E045E550E003
:1035300060E070E089EE93E10E94280B61E08DE18C
:103540000E94680307E020E030E048EC50E060E0D3
:1035500070E08BE595E10E94280B08E020E030E068
:1035600045E550E060E070E080EF94E10E94280BB8
:1035700061E083E10E94680304E020E030E04AEF6C
:1035800050E060E070E083E299E10E94280B05E0E2
:1035900020E030E044E650E060E070E08AE298E14C
:1035A0000E94280B06E020E030E044E650E060E0B6
:1035B00070E08AE296E10E94280B43E060E081E03F
:1035C0000E9430099093F20F8093F10F43E060E086
:1035D00081E00E9430099093F40F8093F30F40E054
:1035E00065E081E00E9430099093F00F8093EF0F27
:1035F00002E020E030E048E750E060E070E087EB78
:1036000094E10E94280B05E020E030E048EC50E017
:1036100060E070E089E996E10E94280B8AE393E07C
:103620000E94AB104FE353E061E081E00E94800212
:1036300040E553E061E082E00E94800241E653E011
:1036400061E083E00E94800249E452E061E084E0AE
:103650000E9480022FEF8DE399E42150804090403A
:10366000E1F700C000000E94130282E793E00E948D
:1036700023110E942F0C0F91FF90EF90DF90CF90BD
:10368000BF90AF900895A1E21A2EAA1BBB1BFD01AB
:103690000DC0AA1FBB1FEE1FFF1FA217B307E40731
:1036A000F50720F0A21BB30BE40BF50B661F771F89
:1036B000881F991F1A9469F7609570958095909569
:1036C0009B01AC01BD01CF010895EE0FFF1F002447
:1036D000001C0BBE0790F691E02D0994A29FB0014B
:1036E000B39FC001A39F700D811D1124911DB29F36
:1036F000700D811D1124911D0895FC0188279927C3
:10370000E89421912032E9F3293010F02E30C8F3EB
:103710002B3239F02D3231F4689403C043D0820F3C
:10372000911D219120532A30C8F31EF49095819564
:103730009F4F0895FB01DC0102C001900D924150A2
:103740005040D8F70895FB01DC010D900020E9F707
:10375000119701900D920020E1F70895FB01DC0123
:103760008D91019080190110D9F3990B0895FB01F7
:10377000DC0101900D920020E1F7089545325105DA
:1037800018F4423008F004C0FB011082CB01089508
:10379000BB274A3031F4992322F4BDE290958195FC
:1037A0009F4F09C07AE0979F902D879F802D910DA4
:1037B00011240895BB27FB015527AA27880F991FBD
:1037C000AA1FA41710F0A41B83955051B9F7A05D50
:1037D000AA3308F0A95DA193009779F7B111B193CD
:1037E0001192CB0141C20F931F93CF93DF93CDB7BB
:1037F000DEB72E970FB6F894DEBF0FBECDBF0D8992
:103800001E8986E08C831A8309838FEF9FE79E834E
:103810008D83AE01475E5F4F6F89788DCE01019633
:1038200010D0EF81F885E00FF11F10822E960FB6B1
:10383000F894DEBF0FBECDBFDF91CF911F910F91E6
:1038400008952F923F924F925F926F927F928F9244
:103850009F92AF92BF92CF92DF92EF92FF920F931F
:103860001F93CF93DF93CDB7DEB72B970FB6F894A6
:10387000DEBF0FBECDBF6C017B018A01FC01178248
:103880001682838181FFBFC1CE0101963C01F60102
:103890009381F70193FD859193FF81917F018823A7
:1038A00009F4ADC1853239F493FD859193FF81917F
:1038B0007F01853221F4B60190E0E6D1E8CF912C6A
:1038C000212C312CFFE1F315D8F08B3279F038F44C
:1038D000803279F08332A1F4232D20611DC08D3216
:1038E00061F0803369F4232D216016C0832D82603E
:1038F000382EE32DE4603E2E2AC0F32DF8601DC063
:1039000037FC2DC020ED280F2A3040F08E32B9F45C
:1039100036FC75C1232D2064322E19C036FE06C038
:103920008AE0989E200D1124922E11C0EAE02E9E6E
:10393000200D1124222EF32DF0623F2E08C08C366C
:1039400021F4832D8068382E02C0883641F4F701B7
:1039500093FD859193FF81917F018111B3CF982FC2
:103960009F7D9554933028F40C5F1F4F9FE39983FC
:103970000DC0833631F0833771F0833509F055C0BF
:1039800020C0F801808189830E5F1F4F88248394B3
:10399000912C530112C02801F2E04F0E511CF80186
:1039A000A080B18036FE03C0692D70E002C06FEFC9
:1039B0007FEFC5014ED14C018201F32DFF773F2EE1
:1039C00015C0280122E0420E511CF801A080B180F0
:1039D00036FE03C0692D70E002C06FEF7FEFC501B6
:1039E0002DD14C01F32DF0683F2E820133FC19C01C
:1039F000822D90E088169906A0F4B60180E290E04E
:103A000043D12A94F5CFF50137FC859137FE81919A
:103A10005F01B60190E038D121102A9421E0821A8A
:103A200091088114910479F7E1C0843611F0893648
:103A300039F5F80137FE07C0608171818281938179
:103A40000C5F1F4F08C060817181072E000C880B2E
:103A5000990B0E5F1F4FF32DFF763F2E97FF09C086
:103A600090958095709561957F4F8F4F9F4FF0682F
:103A70003F2E2AE030E0A30143D1882E861844C0AF
:103A8000853731F4232D2F7EB22E2AE030E025C079
:103A9000932D997FB92E8F36C1F018F4883579F0BF
:103AA000AEC0803719F0883721F0A9C0E92FE06156
:103AB000BE2EB4FE0DC0FB2DF460BF2E09C034FE37
:103AC0000AC0292F2660B22E06C028E030E005C0CB
:103AD00020E130E002C020E132E0F801B7FE07C08B
:103AE00060817181828193810C5F1F4F06C060816C
:103AF000718180E090E00E5F1F4FA30101D1882EFD
:103B00008618FB2DFF773F2E36FE0DC0232D2E7F0E
:103B1000A22E891458F434FE0BC032FC09C0832D48
:103B20008E7EA82E05C0B82CA32C03C0B82C01C0D3
:103B3000B92CA4FE0FC0FE01E80DF11D8081803379
:103B400021F49A2D997EA92E09C0A2FE06C0B39435
:103B5000B39404C08A2D867809F0B394A3FC10C0F6
:103B6000A0FE06C0B21480F4280C922C9B180DC045
:103B7000B21458F4B60180E290E086D0B394F8CF46
:103B8000B21418F42B1802C0982C212CA4FE0FC0DC
:103B9000B60180E390E078D0A2FE16C0A1FC03C07D
:103BA00088E790E002C088E590E0B6010CC08A2D5D
:103BB000867851F0A1FE02C08BE201C080E2A7FC32
:103BC0008DE2B60190E060D0891430F4B60180E354
:103BD00090E05AD09A94F8CF8A94F301E80DF11D41
:103BE0008081B60190E050D08110F6CF222009F4F8
:103BF0004ECEB60180E290E047D02A94F7CFF6018E
:103C00008681978102C08FEF9FEF2B960FB6F894B5
:103C1000DEBF0FBECDBFDF91CF911F910F91FF90FF
:103C2000EF90DF90CF90BF90AF909F908F907F905C
:103C30006F905F904F903F902F900895FC010590FA
:103C4000615070400110D8F7809590958E0F9F1F9E
:103C50000895FC016150704001900110D8F78095E3
:103C600090958E0F9F1F0895DC01FC01672F7191C5
:103C70007723E1F7329704C07C916D937083629152
:103C8000AE17BF07C8F308950F931F93CF93DF9329
:103C9000FB01238121FD03C08FEF9FEF2CC022FF8A
:103CA00016C046815781248135814217530744F459
:103CB000A081B1819D012F5F3F4F318320838C9381
:103CC000268137812F5F3F4F3783268314C08B01B6
:103CD000EC01FB010084F185E02D0995892BE1F6CB
:103CE000D80116968D919C911797019617969C93E3
:103CF0008E931697CE01DF91CF911F910F9108956A
:103D0000FA01AA27283051F1203181F1E8946F930C
:103D10006E7F6E5F7F4F8F4F9F4FAF4FB1E03ED0B2
:103D2000B4E03CD0670F781F891F9A1FA11D680F50
:103D3000791F8A1F911DA11D6A0F711D811D911D83
:103D4000A11D20D009F468943F912AE0269F1124F8
:103D50003019305D3193DEF6CF010895462F47705C
:103D6000405D4193B3E00FD0C9F7F6CF462F4F70B7
:103D7000405D4A3318F0495D31FD4052419302D015
:103D8000A9F7EACFB4E0A6959795879577956795BB
:103D9000BA95C9F700976105710508959B01AC01BB
:103DA0000A2E06945795479537952795BA95C9F7E2
:103DB000620F731F841F951FA01D0895F894FFCFF5
:103DC0003132333435363738392A3023FFFFFFFF9D
:103DD0004D515454000100313233340030000000A2
:103DE000000000000000000000000032350000006C
:103DF0000000000000000000000030000000000093
:103E0000000000000000000000001E0014002575E6
:103E10000049444C4500736F696C206D6F69737481
:103E20003D2020202520004C696768743D2020201B
:103E3000252020202020200048756D69643D202029
:103E400020202025524820200074656D703D2020E0
:103E5000202020204465672E6300312D4F70656E51
:103E600020446F6F72202020202000322D53657473
:103E700074696E6720202020202020002020202030
:103E800020202020202020202020202000232D5210
:103E9000657475726E20746F206D61696E00312DCE
:103EA00054656D702020436F6E6669672020003274
:103EB0002D4C4452202020436F6E666967202000FD
:103EC000332D4D6F69737420436F6E6669672020D0
:103ED000004E65772074656D7065726174757265EA
:103EE00020006F6C643D002A2D4F4B2020202020A5
:103EF0002020202020202000456E74657220506113
:103F00007373776F72642020002A2A2A2A2A2A2AA9
:103F10002A2A2A2A2A2A2A2A2A002A2A2A205741F1
:103F2000524E494E47202A2A2A2A002A46495245FB
:103F3000204445544543544544202A00472F736F7D
:103F4000696C00472F6C6967687400472F68756D4E
:103F500000472F74656D70004E6577204D6F697353
:103F60007420202020202020004E6577206C696777
:103F70006874206375746F666600472F66697265A2
:103F800000686F6D65206F6E2066697265004E6F08
:103F90002066697265004F75746572206C69676888
:103FA00074204F4E004F75746572206C6967687499
:103FB000204F46460057617465722050756D702021
:103FC0004F4E0057617465722050756D70204F46DA
:103FD000460046616E204F4E0046616E204F666679
:103FE000005061737320616363657074656400578A
:103FF000726F6E6720506173730031313131002A66
:104000002A2057454C434F4D4520544F202A2A0023
:104010002A2A2A2A20534D415254202A2A2A2A2A5F
:10402000002A2A2A2A20484F4D45202A2A2A2A2AAD
:0C4030002A00472F646576696365730001
:00000001FF
