S0160000536D617274486F6D655F52544F532E73726563D7
S113000045C0000061C000005FC000005DC000008A
S11300105BC0000059C0000057C0000055C000007C
S113002053C0000051C000004FC000004DC000008C
S113003088C6000049C0000047C0000045C0000059
S113004043C0000041C000003FC000003DC00000AC
S11300503BC0000039C0000037C0000035C00000BC
S113006033C0000031C000002FC000002DC00000CC
S11300702BC0000029C0000027C0000025C00000DC
S113008023C0000021C000001FC0000011241FBEB7
S1130090CFEFD0E1DEBFCDBF12E0A0E0B1E0E6ECEF
S11300A0F9E200E00BBF02C007900D92AC30B1073B
S11300B0D9F72AE0ACE0B2E001C01D92A638B2073D
S11300C0E1F703D00C94E1149BCF0E94AF10FFCF53
S11300D061E082E1E3D260E082E153D28FE39CE904
S11300E00197F1F700C0000061E082E14AC208957F
S11300F0CF93DF93D8E0C0E082E15DD38823E1F3BE
S113010080E58A95F1F782E156D3811102C0CC0FC4
S113011002C0CC0FC16082E14ED38111FCCFD1501B
S113012059F78C2FDF91CF91089560E082E1B6D228
S113013082E141D38111FCCF82E13DD38823E1F3F5
S113014082E139D38111FCCF08954F925F926F926F
S11301507F928F929F92AF92BF92CF92DF92EF9253
S1130160FF920F931F93CF93DF93CDB7DEB76697BC
S11301700FB6F894DEBF0FBECDBF3C015B014A0150
S1130180422E532E8EE290E09A8389838AE0FE0108
S11301903396DF01982F1D929A95E9F73A96DF017D
S11301A01D928A95E9F7772334F4E894B7F88DE241
S11301B0FA0181934F019501ADECBCEC0E94DA1178
S11301C06C01D694C794D694C794D694C794DF92FE
S11301D0CF9208E111E01F930F939F928F920E9498
S11301E006129301ADECBCEC0E94DA117C01F6948A
S11301F0E794F694E794F694E794FF92EF921F93B2
S11302000F935F924F920E940612C601880F991FA6
S1130210CC0CDD1CCC0CDD1CCC0CDD1CC80ED91E9A
S1130220AC18BD08BF92AF921F930F936E01F3E019
S1130230CF0ED11CDF92CF920E940612C701880F05
S1130240991FEE0CFF1CEE0CFF1CEE0CFF1CE80EBD
S1130250F91E6E187F087F926F921F930F938E0181
S1130260035F1F4F1F930F930E940612BE016F5F1F
S11302707F4F842D952D0E94F211BE016F5F7F4F39
S1130280C4010E94F211B801842D952D0E94F2112F
S1130290B601C4010E94F2110FB6F894DEBF0FBE7E
S11302A0CDBF66960FB6F894DEBF0FBECDBFDF910B
S11302B0CF911F910F91FF90EF90DF90CF90BF905F
S11302C0AF909F908F907F906F905F904F90089524
S11302D0DF92EF92FF920F931F93CF93DF937C01F2
S11302E08B01F6DE22DF04DFD82E02DFD82F00DFF9
S11302F0C82FFEDE6C2F70E0762F6627682B8D2FBB
S113030090E09701A8019D2920DF81E0DF91CF9142
S11303101F910F91FF90EF90DF90089541E06FE0FF
S113032087E390E093D241E06FE088E390E07FD2EE
S113033040E060E787E390E089D241E060E788E34A
S113034090E075C20895CF93DF93D8E060E08D2FDD
S113035018D1CCE08C2F2FD2811113C08C2F2BD22B
S11303608823E1F38D2F90E00897FC01EE0FFF1F27
S1130370E80FF91FE050FF4FEC0FF11D3C9780810F
S11303800AC0CF5FCF3031F761E08D2FFAD0DF5F45
S1130390DC30E1F680E0DF91CF91089561E083E005
S11303A0F0D085E88A95F1F7000060E083E0E9D0B9
S11303B085E88A95F1F700000895CF93C82F40E0AF
S11303C060EF8BE390E033D26C2F607F41E08BE3EE
S11303D090E02DD2E3DF40E060EF8BE390E027D2A2
S11303E080E1C89FB001112441E08BE390E01FD26B
S11303F0D5DF85E88A95F1F70000CF910895CF9372
S1130400C82F60E082E0BDD08C2FD7DFCF91089554
S113041081E0F5DF8FE99FE00197F1F700C000006C
S1130420089582E0ECDF8FE99FE00197F1F700C0C7
S11304300000089541E060EF8AE390E007D241E0D4
S11304406CE08AE390E002D22FEF89EF90E0215034
S113045080409040E1F700C00000E3DF86E0CFDF9A
S11304608CE0CDDF80E1CBDF88E2C9DFD1CF089516
S1130470CF93C82F61E082E084D08C2F9EDFCF9190
S113048008950F931F93CF93FC018081882351F02B
S11304908F01C0E0EDDFCF5FF801EC0FF11D80812B
S11304A08111F8CFCF911F910F910895813021F4DC
S11304B08FE7860FA4CF0895823021F48FEB860F47
S11304C09ECF0895833021F48FE8860F98CF089546
S11304D0843019F48FEC860F92CF0895CF93C42FF4
S11304E0E5DF8C2FC5DFCF910895CF93DF93EA0129
S11304F0DDDFCE01C6DFDF91CF9108950F931F9307
S1130500CF93DF93CDB7DEB72B970FB6F894DEBF4A
S11305100FBECDBF8E010F5F1F4F2BE0F80111926C
S11305202A95E9F79F938F937F936F9388E191E0E6
S11305309F938F931F930F930E940612C801A1DF0C
S11305400FB6F894DEBF0FBECDBF2B960FB6F8944E
S1130550DEBF0FBECDBFDF91CF911F910F910895E4
S11305603E9A86B1876886B9089597B1907E97B907
S113057097B1892B87B9369A3699FECF84B195B154
S113058008958830F8F4613069F44BB321E030E029
S1130590B90102C0660F771F8A95E2F7CB01842B5D
S11305A08BBB0895611179C04BB321E030E0B901F0
S11305B002C0660F771F8A95E2F7CB0180958423EA
S11305C08BBB089598EF980F983000F5613069F46B
S11305D048B321E030E0B90102C0660F771F9A9555
S11305E0E2F7CB01842B88BB0895611156C048B350
S11305F0885021E030E0B90102C0660F771F8A9568
S1130600E2F7CB018095842388BB089590EF980F7F
S1130610983000F5613069F445B321E030E0B90168
S113062002C0660F771F9A95E2F7CB01842B85BB36
S11306300895611132C045B3805121E030E0B90121
S113064002C0660F771F8A95E2F7CB018095842359
S113065085BB089598EE980F9830F8F4613069F4EA
S113066042B321E030E0B90102C0660F771F9A95CA
S1130670E2F7CB01842B82BB089561110EC042B313
S1130680885121E030E0B90102C0660F771F8A95D6
S1130690E2F7CB018095842382BB08958830F8F477
S11306A0613069F44AB321E030E0B90102C0660F59
S11306B0771F8A95E2F7CB01842B8ABB08956111D9
S11306C079C04AB321E030E0B90102C0660F771F58
S11306D08A95E2F7CB01809584238ABB089598EF2D
S11306E0980F983000F5613069F447B321E030E0A9
S11306F0B90102C0660F771F9A95E2F7CB01842BEC
S113070087BB0895611156C047B3885021E030E09B
S1130710B90102C0660F771F8A95E2F7CB01809575
S1130720842387BB089590EF980F983000F56130CB
S113073069F444B321E030E0B90102C0660F771FC9
S11307409A95E2F7CB01842B84BB0895611132C0E2
S113075044B3805121E030E0B90102C0660F771F35
S11307608A95E2F7CB018095842384BB089598EEA3
S1130770980F9830F8F4613069F441B321E030E027
S1130780B90102C0660F771F9A95E2F7CB01842B5B
S113079081BB089561110EC041B3885121E030E05E
S11307A0B90102C0660F771F8A95E2F7CB018095E5
S11307B0842381BB0895883058F429B330E0A9011B
S11307C002C0559547958A95E2F7CA01817008954C
S11307D098EF980F983058F426B330E0A90102C07E
S11307E0559547959A95E2F7CA018170089590EF5F
S11307F0980F983058F423B330E0A90102C05595FE
S113080047959A95E2F7CA018170089598EE980F7A
S1130810983058F420B330E0A90102C055954795AB
S11308209A95E2F7CA018170089580E008954130F5
S113083029F4FC012081622B60830895411105C0D5
S1130840FC0120816095622360830895413029F47E
S1130850FC012081622B60830895411105C0FC01D5
S113086020816095622360830895CF93C82FDB01B4
S1130870CA01880F991FAA1FBB1F880F991FAA1F9F
S1130880BB1F9C01AD01220F331F441F551F220FB4
S1130890331F441F551F60E072E18AE790E00E9415
S11308A0B81121503109CC2319F0C13051F013C0D3
S11308B03093900029B988E18AB986E08093950045
S11308C00AC0309398002093990088E180939A009D
S11308D086E080939D00CF910895882319F081309C
S11308E029F008955D9BFECF6CB90895EBE9F0E023
S11308F0808185FFFDCF60939C0008951F93CF9363
S1130900DF93EB016881662339F0182F2196812F3C
S1130910E4DF69916111FBCFDF91CF911F910895BD
S1130920CF93DF93EC01FAD580910C0290910D02E4
S1130930892B31F481E192E090930D0280930C02B3
S113094020910E0230910F02C9018C0F9D1F8F3C24
S113095047E0940770F42817390770F4C0910C022B
S1130960D0910D02C20FD31F90930F0280930E02F9
S113097005C0C0E0D0E002C0C0E0D0E08ED6CE0119
S1130980DF91CF9108950895FC01039692838183AA
S11309902FEF3FEF34832383968385839087878368
S11309A010820895FC01118610860895CF93DF9379
S11309B09C01FB01DC011196CD91DC911297D3834C
S11309C0C2838C819D81958384838C819D81DC018C
S11309D013967C936E9312977D836C833187208763
S11309E0F90180818F5F8083DF91CF910895CF9348
S11309F0DF93EB01488159814F3F2FEF520721F4D8
S1130A00FC01A781B0850DC0DC01139601C0DF0194
S1130A101296ED91FC91139720813181421753076F
S1130A20B0F71296ED91FC911397FB83EA83D5837B
S1130A30C483BD83AC831396DC93CE9312979987BA
S1130A408887FC0120812F5F2083DF91CF91089557
S1130A50CF93DF93FC01A085B185C281D3818481CA
S1130A6095819D838C83C481D581828193819B836D
S1130A708A8311968D919C911297E817F90731F4A6
S1130A808481958112969C938E931197118610867A
S1130A908C9181508C93DF91CF91089531E1FC01C9
S1130AA03083319722E220833197A3E3A0833197E7
S1130AB060833197708331971082319760E8608347
S1130AC031971082319762E06083319763E06083ED
S1130AD0319764E06083319765E06083319766E025
S1130AE06083319767E06083319768E06083319772
S1130AF069E06083319760E1608331973083319797
S1130B0032E13083319733E13083319734E13083FC
S1130B10319735E13083319736E13083319737E1CE
S1130B203083319738E13083319739E1308331971D
S1130B3030E23083319731E230833197208331972B
S1130B4023E220833197408331975083319726E203
S1130B502083319727E22083319728E2208331973D
S1130B6029E22083319720E32083319721E32083F6
S1130B70869708951BBC8CE78ABD8BE08EBD87B732
S1130B80806187BFA091760AB091770ACD91CDBFDD
S1130B90DD91DEBFFF91EF91DF91CF91BF91AF91D6
S1130BA09F918F917F916F915F914F913F912F9181
S1130BB01F910F91FF90EF90DF90CF90BF90AF9077
S1130BC09F908F907F906F905F904F903F902F9069
S1130BD01F900F900FBE0F90089581E008950F921B
S1130BE00FB6F8940F921F9211242F923F924F92B6
S1130BF05F926F927F928F929F92AF92BF92CF92A9
S1130C00DF92EF92FF920F931F932F933F934F9393
S1130C105F936F937F938F939F93AF93BF93CF9380
S1130C20DF93EF93FF93A091760AB091770A0DB604
S1130C300D920EB60D9200D6A091760AB091770A65
S1130C40CD91CDBFDD91DEBFFF91EF91DF91CF91CB
S1130C50BF91AF919F918F917F916F915F914F91D0
S1130C603F912F911F910F91FF90EF90DF90CF90C4
S1130C70BF90AF909F908F907F906F905F904F90B8
S1130C803F902F901F900F900FBE0F9008950F92DA
S1130C900FB6F8940F921F9211242F923F924F9205
S1130CA05F926F927F928F929F92AF92BF92CF92F8
S1130CB0DF92EF92FF920F931F932F933F934F93E3
S1130CC05F936F937F938F939F93AF93BF93CF93D0
S1130CD0DF93EF93FF93A091760AB091770A0DB654
S1130CE00D920EB60D9220D48111A6D5A091760A4C
S1130CF0B091770ACD91CDBFDD91DEBFFF91EF9129
S1130D00DF91CF91BF91AF919F918F917F916F911F
S1130D105F914F913F912F911F910F91FF90EF9011
S1130D20DF90CF90BF90AF909F908F907F906F9007
S1130D305F904F903F902F901F900F900FBE0F9099
S1130D400895A5DF18951F93CF93DF93EC01142F1B
S1130D504C8D41110BC088819981892B09F044C0C5
S1130D608A819B81D6D61B821A8245C0111117C075
S1130D7050E08C819D810E94E9112C8D8C819D8194
S1130D80820F911D9D838C832A813B818217930757
S1130D9068F1888199819D838C8380E02CC050E028
S1130DA08E819F810E94E9118C8D90E091958195AF
S1130DB091092E813F81280F391F3F832E8348815B
S1130DC059812417350730F42A813B81820F931F00
S1130DD09F838E83123061F48A8D882359F08A8D23
S1130DE081508A8F80E007C080E005C080E003C0A6
S1130DF080E001C080E09A8D9F5F9A8FDF91CF9150
S1130E001F910895FC01448D4423A9F050E02681EC
S1130E103781240F351F37832683828193812817D6
S1130E20390720F08081918197838683CB01668185
S1130E3077810C94E91108950F931F93CF93DF9357
S1130E40EC010FB6F8940F928E8D1816ACF48989C4
S1130E50811105C011C08989811104C00DC08E01A2
S1130E600F5E1F4FC8016FD58111EDD58E8D815056
S1130E708E8F8E8D18167CF38FEF8E8F0F900FBE92
S1130E800FB6F8940F928D8D1816ACF488858111E5
S1130E9005C011C08885811104C00DC08E01085F92
S1130EA01F4FC80150D58111CED58D8D81508D8FA6
S1130EB08D8D18167CF38FEF8D8F0F900FBEDF9101
S1130EC0CF911F910F910895CF93DF93EC010FB64B
S1130ED0F8940F92488159812C8D30E07B8D729F5C
S1130EE0C001739F900D1124FA01E80FF91FFB83D1
S1130EF0EA831A8E5D834C83821B930B840F951FA8
S1130F009F838E838FEF8D8F8E8F61110AC08885AA
S1130F10882369F0CE01089616D5813041F45FDE4E
S1130F2006C0CE01089630DDCE0141962DDD0F902E
S1130F300FBE81E0DF91CF9108950F931F93CF935C
S1130F40DF938823E1F0062F182F8FE190E0E8DC8F
S1130F50EC01892BB1F0109FC00111240196E0DC53
S1130F6099838883892B31F01B8F0C8F61E0CE012C
S1130F70ABDF07C0CE0107DDC0E0D0E002C0C0E0B7
S1130F80D0E0CE01DF91CF911F910F9108959F92F0
S1130F90AF92BF92CF92DF92EF92FF920F931F9383
S1130FA0CF93DF9300D000D01F92CDB7DEB78C0172
S1130FB06B015D834C83A22EB12C992493947C0104
S1130FC088E0E80EF11C0FB6F8940F92F801928DA8
S1130FD0838D981718F0F2E0AF1215C04A2DB601B0
S1130FE0C801B1DEF8019189992339F0C80141960D
S1130FF0AAD4813021F4F3DD02C08111F0DD0F9019
S11310000FBE81E045C08C819D81892B21F40F9016
S11310100FBE80E03DC0B11004C0CE010196D7D40C
S1131020B92C0F900FBE7AD20FB6F8940F92F80134
S1131030858D8F3F09F4158EF801868D8F3F09F455
S1131040168E0F900FBEBE016C5F7F4FCE010196CE
S1131050C9D4811119C00FB6F8940F92F801928D7A
S11310600F900FBE838D98130BC06C817D81C701D7
S113107050D4C801E1DE11D38111A5CFB0DDA3CFD7
S1131080C801DADE0AD39FCFC801D6DE06D380E0DA
S11310900F900F900F900F900F90DF91CF911F91B1
S11310A00F91FF90EF90DF90CF90BF90AF909F9003
S11310B008959F92AF92BF92CF92DF92EF92FF92E8
S11310C00F931F93CF93DF9300D000D01F92CDB71F
S11310D0DEB78C016B015D834C83922EB12CAA2464
S11310E0A3947C0181E1E80EF11C0FB6F8940F92F1
S11310F0F801828D882369F1E680F780B601C80182
S113110081DE911017C0F801828D8150828F808119
S11311109181892B21F43DD5F80193838283F801D1
S11311208085882391F0C80108960DD4813069F434
S113113056DD0BC0F801F782E6828189882329F005
S1131140C801419600D481114ADD0F900FBE81E0A1
S113115050C08C819D81892B21F40F900FBE80E0BB
S113116048C0B11004C0CE01019631D4BA2C0F90FE
S11311700FBED4D10FB6F8940F92F801858D8F3F2E
S113118009F4158EF801868D8F3F09F4168E0F90A1
S11311900FBEBE016C5F7F4FCE01019623D4811137
S11311A024C00FB6F8940F92F801828D0F900FBEF1
S11311B0811117C080819181892B41F40FB6F89475
S11311C00F928281938143D40F900FBE6C817D81F5
S11311D0C7019FD3C80130DE60D2811186CFFFDC06
S11311E084CFC80129DE59D280CFC80125DE55D26B
S11311F080E00F900F900F900F900F90DF91CF91A0
S11312001F910F91FF90EF90DF90CF90BF90AF9020
S11312109F900895E091FF09F091000A8081811167
S113122007C08FEF9FEF90930D0180930C010895F9
S1131230E091FF09F091000A0580F681E02D068017
S1131240F781E02D8281938190930D0180930C01AD
S11312500895CF93DF93EC01E091760AF091770A39
S1131260938382838091E7099091E809C817D9078D
S113127060F46091760A7091770A8091FD099091EB
S1131280FE096E5F7F4FB3DB16C06091760A7091E2
S1131290770A8091FF099091000A6E5F7F4FA7DB68
S11312A080910C0190910D01C817D90720F4D093B7
S11312B00D01C0930C01DF91CF9108954F925F927D
S11312C06F927F928F929F92AF92BF92CF92DF9252
S11312D0EF92FF920F931F93CF93DF934C01EB0197
S11312E05A0129018FE290E01BDB3C01009709F4CD
S11312F0DAC0C114D10409F0D2C0C50111DBF30175
S1131300908F878B892B19F4C3013DDBCCC0F1E0AE
S1131310AF1AB108F3018789908DA80EB91E888190
S1131320818F8881882381F0D3015A96FE013196FA
S11313309E012C5E3F4FEF0181918D93888188231C
S113134019F02E173F07B9F7F30114A6102F0B302D
S113135008F01AE0F301168B15A716A6E3012296EE
S1131360CE0120DBC3010C961DDBF3017186608680
S11313708BE090E0811B910995878487738A628A48
S1131380A201B401C5018ADBF30191838083E114D6
S1131390F10419F0F701718260820FB6F8940F928C
S11313A08091E9098F5F8093E9098091760A909191
S11313B0770A892BB1F57092770A6092760A809148
S11313C0E909813009F03CC00F2EF3E1EF2EFAE079
S11313D0FF2EF02D0F2EF6E7CF2EFAE0DF2EF02DA4
S11313E0C701D2DAF9E0EF0EF11CCE14DF04C1F725
S11313F08AE09AE0C9DA81E09AE0C6DA84EF99E0FB
S1131400C3DA8BEE99E0C0DA8AE09AE09093000A9E
S11314108093FF0981E09AE09093FE098093FD098F
S11314200FC08091E50981110BC0E091760AF0911B
S1131430770A8689081720F07092770A6092760AF4
S11314408091E1098F5F8093E109F301868990918E
S1131450E609981710F48093E60990E09C01220FA6
S1131460331F220F331F220F331F820F931FBE011E
S11314708D5E954F9BDA0F900FBE8091E50988230E
S113148051F0E091760AF091770A8689801728F462
S1131490A6DB81E009C081E007C081E005C0FC0152
S11314A0D08EC78A34CF8FEFDF91CF911F910F91E8
S11314B0FF90EF90DF90CF90BF90AF909F908F9070
S11314C07F906F905F904F900895AF92BF92CF92AC
S11314D0DF92EF92FF920F93A12CB12CC12CD12C4F
S11314E0E12CF12C00E020E030E045E550E06BE138
S11314F071E085EE9BE0E2DE813041F4F894809364
S1131500E5091092E8091092E70934DB0F91FF9086
S1131510EF90DF90CF90BF90AF9008958091E00955
S11315208F5F8093E0090895CF92DF92EF92FF924C
S11315300F931F93CF93DF938091E009811197C09C
S11315408091E7099091E80901969093E8098093C6
S1131550E709E090E709F090E809E114F104B1F437
S11315608091FF099091000A2091FD093091FE09B4
S11315703093000A2093FF099093FE098093FD099C
S11315808091E2098F5F8093E20944DE80910C012F
S113159090910D01E816F90610F4D12C50C0D12C0D
S11315A0CC24C394E091FF09F091000A8081811159
S11315B007C08FEF9FEF90930D0180930C013FC004
S11315C0E091FF09F091000A0580F681E02DC681C3
S11315D0D7818A819B81E816F90628F490930D013E
S11315E080930C012CC08E010E5F1F4FC80130DAAE
S11315F08C899D89892B19F0CE010C9629DA8E8964
S11316009091E609981710F48093E60990E09C0104
S1131610220F331F220F331F220F331F820F931FFA
S1131620B8018D5E954FC2D9E091760AF091770AA0
S11316309E898689981708F4B5CFDC2CB3CFE09146
S1131640760AF091770A868990E0FC01EE0FFF1F7D
S1131650EE0FFF1FEE0FFF1F8E0F9F1FFC01ED5EAD
S1131660F54F8081823048F0DD24D39406C0809108
S1131670E4098F5F8093E409D12C8091E3098823E6
S113168011F0DD24D3948D2DDF91CF911F910F9113
S1131690FF90EF90DF90CF900895DF92EF92FF924A
S11316A00F931F93CF93DF930FB6F8940F9280910B
S11316B0E00981508093E0098091E00981115DC0C7
S11316C08091E909811130C05BC0D7011596ED9175
S11316D0FC911697C681D781CE010C96B9D98E019B
S11316E00E5F1F4FC801B4D98E899091E6099817EF
S11316F010F48093E60990E09C01220F331F220F1F
S1131700331F220F331F820F931FB8018D5E954F35
S11317104DD9E091760AF091770A9E8986899817C7
S113172058F0D092E30908C00F2EF4EFEF2EF9E041
S1131730FF2EF02DDD24D394F70180818111C5CFD4
S11317408091E409882391F08091E409882371F061
S1131750C1E0EADE8111C093E3098091E40981507C
S11317608093E4098091E4098111F3CF8091E30926
S1131770813029F434DA81E003C080E001C080E0E4
S11317800F900FBEDF91CF911F910F91FF90EF90BB
S1131790DF900895CF93DF93EC01892B91F0BEDEA7
S11317A08091E7099091E809C80FD91F8091760AC2
S11317B09091770A02964CD9CE014BDD6EDF8111F0
S11317C001C00DDADF91CF9108950BEE19E00F2ED1
S11317D0F3E1EF2EFAE0FF2EF02D24C09FDED801B6
S11317E0CC915BDFCC23F1F00FB6F8940F92D801C3
S11317F01596ED91FC911697C681D781CE0102967C
S113180027D98091E90981508093E9098091EA09F7
S113181081508093EA090F900FBE8F89988DB3D8B9
S1131820CE01B1D88091EA098111D8CFF701808126
S11318308230C0F3D4D9F6CF8091E009882321F017
S113184081E08093E30908951092E3098091E60909
S113185090E0FC01EE0FFF1FEE0FFF1FEE0FFF1FC6
S11318608E0F9F1FFC01ED5EF54F8081811117C023
S11318708091E60981508093E6098091E60990E021
S1131880FC01EE0FFF1FEE0FFF1FEE0FFF1F8E0F69
S11318909F1FFC01ED5EF54F8081882349F3809101
S11318A0E60990E09C01220F331F220F331F220F01
S11318B0331F280F391FD901AD5EB54F1196ED9135
S11318C0FC9112970280F381E02D1296FC93EE9323
S11318D011972A5E354FE217F30729F422813381E9
S11318E0FD0132832183FC01EE0FFF1FEE0FFF1F6A
S11318F0EE0FFF1F8E0F9F1FFC01ED5EF54F018061
S1131900F281E02D868197819093770A8093760AFD
S11319100895CF93DF93EB016091760A7091770A73
S1131920645F7F4F64D88091760A9091770A02961B
S11319308FD88091E7099091E8098C0F9D1F89DC6D
S1131940DF91CF9108950F931F93CF93DF93DC0121
S11319501596ED91FC911697C681D7818E01045F8F
S11319601F4FC80175D88091E00981111AC00A502F
S11319701109C8016DD88E899091E609981710F461
S11319808093E60990E09C01220F331F220F331F3E
S1131990220F331F820F931FB8018D5E954F06D817
S11319A004C0B80184EF99E001D8E091760AF0917F
S11319B0770A9E898689891720F481E08093E30958
S11319C001C080E0DF91CF911F910F910895209184
S11319D0E209FC0120832091E7093091E809328370
S11319E021830895CF93DF93FC010FB6F8940F92EF
S11319F02091E7093091E8098091E20990819817D4
S1131A0029F08181928128173907A8F4A181B28134
S1131A10EB0148815981C9018A1B9B0B84179507E7
S1131A2060F4CF01A21BB30B4A0F5B1F5983488399
S1131A30CEDF80E003C081E001C081E00F900FBEE3
S1131A40DF91CF91089581E08093E30908950F9386
S1131A501F93CF93DF93FC01892B09F455C026898A
S1131A60A091760AB091770A56968C91281708F0BF
S1131A704BC084859585992364F0A091760AB09132
S1131A80770A56963C918BE090E0831B91099587E9
S1131A90848730E0C901880F991F880F991F880F28
S1131AA0991F280F391F2D5E354F82859385821724
S1131AB0930719F58F01EF012296CE010E942805A4
S1131AC0E091760AF091770A8689F801868B9091E5
S1131AD0E609981710F48093E60990E09C01220F20
S1131AE0331F220F331F220F331F820F931FBE0198
S1131AF08D5E954F0E94D60407C0A091760AB091DE
S1131B00770A56968C91868BDF91CF911F910F9116
S1131B1008950F931F93CF93DF93FC01892B79F1E1
S1131B2086A5815086A7268995A5291751F181118B
S1131B302AC0EF018F010E5F1F4FC8010E942805C4
S1131B408DA58E8B2BE030E0281B31093D872C8737
S1131B509091E609981710F48093E60990E09C01AF
S1131B60220F331F220F331F220F331F820F931FA5
S1131B70B8018D5E954F0E94D60481E005C080E0D7
S1131B8003C080E001C080E0DF91CF911F910F91ED
S1131B9008958091760A9091770A892B39F0E09123
S1131BA0760AF091770A86A58F5F86A78091760AD8
S1131BB09091770A0895CF93DF93EC0160E080E081
S1131BC00E946D04FE0101900020E9F73197BF01E6
S1131BD06C1B7D0B80E00E946D04BE0180E00E94BE
S1131BE07E04DF91CF910895EF92FF920F931F939C
S1131BF0CF93DF938C01CEE0D1E009900020E9F788
S1131C002197CE018E5091407C01F8010190002073
S1131C10E9F73197EF01C01BD10B60E180E00E942E
S1131C206D046C2F6E0D685F80E00E946D048EE081
S1131C3091E0C1DF64E080E00E946D0462E080E036
S1131C400E946D046FEF80E00E946D046FEF80E0EE
S1131C500E946D04C801AFDFDF91CF911F910F91F6
S1131C60FF90EF900895CF92DF92EF92FF920F933F
S1131C701F93CF93DF936C017B01142FFC01019020
S1131C800020E9F73197E81BF90BC2E0C40FCE0F2F
S1131C9060E380E00E946D046C2F80E00E946D047C
S1131CA0C60189DF112379F0E7011150012F10E0FB
S1131CB00F5F1F4F0E0D1F1D699180E00E946D0480
S1131CC0C017D107C9F7DF91CF911F910F91FF90F2
S1131CD0EF90DF90CF900895CF93DF93CDB7DEB729
S1131CE02D970FB6F894DEBF0FBECDBF8DE0E7E2AF
S1131CF0F1E0DE01119601900D928A95E1F78E01D3
S1131D000F5F1F4F8AE10E94DB038823B1F0F801C3
S1131D1001900020E9F73197AF01401B510BB80146
S1131D2080E291E0A0DF20E040E050E060E070E07D
S1131D308091840A9091850A2AD98CE291E02ADD67
S1131D40E1CF20E044E650E060E070E08091840A56
S1131D509091850AAED9882349F061E08BE10E9415
S1131D60C10261E08FE00E94C10208C060E08BE123
S1131D700E94C10260E08FE00E94C1028CE291E007
S1131D8009DDDFCF20E048EB5BE060E070E08091AC
S1131D90820A9091830A8DD9882329F061E083E136
S1131DA00E94C102EFCF60E083E10E94C102EACF4A
S1131DB020E044E650E060E070E08091800A909179
S1131DC0810A77D9882329F061E08CE10E94C1025D
S1131DD004C060E08CE10E94C10220E044E650E0CF
S1131DE060E070E080917E0A90917F0A62D9882336
S1131DF029F061E08DE10E94C102DACF60E08DE15B
S1131E000E94C102D5CFCF93DF93CDB7DEB7E19760
S1131E100FB6F894DEBF0FBECDBF83E1E4E6F1E078
S1131E20DE015F9601900D928A95E1F77E0180E1D3
S1131E30E80EF11C8E010F5F1F4F6E018FE1C80E7B
S1131E40D11C44E351E061E083E00E94750243E465
S1131E5051E061E084E00E947502B801C7010E946C
S1131E606801A70167E083E00E947502A80166E0AB
S1131E7084E00E94750264E571E0C801BED21816C0
S1131E80190634F5F60101900020E9F73197AF0106
S1131E904C195D09B60187E591E0E5DEF801019092
S1131EA00020E9F73197AF01401B510BB80187E5DA
S1131EB091E0D9DE20E040E050E060E070E0809105
S1131EC0820A9091830A63D888EE93E063DC0FC0A2
S1131ED0F80101900020E9F73197AF01401B510B45
S1131EE0B80187E591E0BFDE88EE93E053DCF701AB
S1131EF001900020E9F73197AF014E195F09B7014E
S1131F008EE591E0B0DE88EE93E044DC9ACF04E6FF
S1131F1010E00F2EFBEF4F2EF3E05F2E612C712C9F
S1131F20F02D80E090E00E94B502EC0181E090E0A9
S1131F300E94B5027C019E01A4E6B0E03BD2A3015D
S1131F40920116D2E801C21BD30B9701A4E6B0E0BC
S1131F5031D227E931E040E050E00AD269017A0148
S1131F60590147E751E061E081E00E9475026CE0AD
S1131F7081E00E945602BE0180E090E00E947E0251
S1131F8047E851E061E082E00E94750267E082E088
S1131F900E945602C701B601882799270E947E0233
S1131FA06F9758F420E040E050E060E070E08091EA
S1131FB0800A9091810A0E94C7078EE1A816B10495
S1131FC058F420E040E050E060E070E080917E0A48
S1131FD090917F0A0E94C707C801DCDBA2CFCF9390
S1131FE0DF9300D000D01F92CDB7DEB7FE0131964B
S1131FF085E0DF011D928A95E9F77F01DE2E0F2D22
S113200020E04CE251E060E070E080917A0A909127
S11320107B0A4FD88823A1F10E94080242E951E0CB
S113202061E082E00E94750210E00E94A301833205
S113203069F0882319F1F701E10FF11D80831F5F17
S1132040482F612F83E00E946E0218C020E04CE20A
S113205051E06D2D702F8091780A9091790A0E9439
S1132060C70720E040E050E060E070E080917C0A27
S113207090917D0A0E94C70710E0D7CF1530A8F2CF
S113208088EC90E087DBBCCFCF93DF9300D000D007
S11320901F92CDB7DEB7FE01319685E0DF011D92B8
S11320A08A95E9F720E048EE53E060E070E0809123
S11320B07C0A90917D0A0E945908882399F320E0B4
S11320C044E650E0BE016F5F7F4F8091780A9091A3
S11320D0790A0E945908BE016F5F7F4F83E191E046
S11320E08CD1892BD1F40E94080261E084E10E9422
S11320F0C10243EA51E061E082E00E947502BFEF51
S11321002DE389E4B15020408040E1F700C0000095
S113211060E084E10E94C1021EC00E94080241EBFB
S113212051E061E082E00E94750288EE93E032DBC8
S11321300E94080242E951E061E082E00E947502D7
S113214020E040E050E060E070E080917A0A9091F5
S11321507B0A0E94C70788EC90E01CDBA3CFAF92F8
S1132160BF92CF92DF92EF92FF920F930E948E0163
S11321700E941A020E94B00240E855E260E070E05A
S113218080E00E9435048CEB91E02EDD41EC51E0BF
S113219061E081E00E94750242ED51E061E082E07D
S11321A00E94750243EE51E061E083E00E947502F3
S11321B044EF51E061E084E00E9475022FEF8DE36B
S11321C099E4215080409040E1F700C000000E9453
S11321D0080261E084E10E944E0361E08FE10E9405
S11321E04E0361E08EE10E944E03A12CB12CC12C60
S11321F0D12CE12CF12C09E020E030E044E650E061
S113220060E070E08CE69EE059D80AE020E030E01F
S113221044E650E060E070E081EA9EE04FD843E09D
S113222060E081E00E949D079093850A8093840A70
S113223060E08AE10E944E0361E08BE10E944E035C
S113224061E08FE00E944E0307E020E030E048ECBC
S113225050E060E070E083E09FE030D808E020E0E8
S113226030E044E650E060E070E082EC9EE026D886
S113227043E060E081E00E949D079093830A80938D
S1132280820A61E083E10E944E0301E020E030E035
S113229044E650E060E070E08FEE9FE00FD802E08B
S11322A020E030E044E650E060E070E084E490E157
S11322B005D843E060E081E00E949D0790937B0A8B
S11322C080937A0A43E060E081E00E949D07909346
S11322D07D0A80937C0A40E065E081E00E949D07CE
S11322E09093790A8093780A20E040E050E060E01F
S11322F070E080917A0A90917B0A0E94C70703E0FC
S113230020E030E044E650E060E070E087E89FE0E1
S11323100E945E0904E020E030E044E650E060E022
S113232070E088ED9EE00E945E0943E060E081E099
S11323300E949D079093810A8093800A43E060E0A5
S113234081E00E949D0790937F0A80937E0A61E05A
S11323508CE10E944E0361E08DE10E944E03B5D8EA
S11323600F91FF90EF90DF90CF90BF90AF900895C2
S1132370A1E21A2EAA1BBB1BFD010DC0AA1FBB1F85
S1132380EE1FFF1FA217B307E407F50720F0A21BF7
S1132390B30BE40BF50B661F771F881F991F1A9464
S11323A069F760957095809590959B01AC01BD018E
S11323B0CF010895A29FB001B39FC001A39F700DE8
S11323C0811D1124911DB29F700D811D1124911D39
S11323D00895FB01DC0102C001900D924150504070
S11323E0D8F70895FB01DC010D900020E9F711975F
S11323F001900D920020E1F70895FB01DC018D911D
S1132400019080190110D9F3990B08950F931F932C
S1132410CF93DF93CDB7DEB72E970FB6F894DEBF18
S11324200FBECDBF0D891E8986E08C831A83098374
S11324308FEF9FE79E838D83AE01475E5F4F6F8969
S1132440788DCE01019610D0EF81F885E00FF11F51
S113245010822E960FB6F894DEBF0FBECDBFDF916B
S1132460CF911F910F9108952F923F924F925F92B7
S11324706F927F928F929F92AF92BF92CF92DF9290
S1132480EF92FF920F931F93CF93DF93CDB7DEB7F5
S11324902B970FB6F894DEBF0FBECDBF6C017B0146
S11324A08A01FC0117821682838181FFBFC1CE019C
S11324B001963C01F6019381F70193FD859193FF09
S11324C081917F01882309F4ADC1853239F493FDEC
S11324D0859193FF81917F01853221F4B60190E0CB
S11324E0D6D1E8CF912C212C312CFFE1F315D8F073
S11324F08B3279F038F4803279F08332A1F4232DD1
S113250020611DC08D3261F0803369F4232D216078
S113251016C0832D8260382EE32DE4603E2E2AC03F
S1132520F32DF8601DC037FC2DC020ED280F2A3094
S113253040F08E32B9F436FC75C1232D2064322E5E
S113254019C036FE06C08AE0989E200D1124922EF2
S113255011C0EAE02E9E200D1124222EF32DF062EC
S11325603F2E08C08C3621F4832D8068382E02C09B
S1132570883641F4F70193FD859193FF81917F01A2
S11325808111B3CF982F9F7D9554933028F40C5F1D
S11325901F4F9FE399830DC0833631F0833771F069
S11325A0833509F055C020C0F801808189830E5F0E
S11325B01F4F88248394912C530112C02801F2E008
S11325C04F0E511CF801A080B18036FE03C0692D66
S11325D070E002C06FEF7FEFC5014ED14C01820164
S11325E0F32DFF773F2E15C0280122E0420E511C27
S11325F0F801A080B18036FE03C0692D70E002C0EE
S11326006FEF7FEFC5012DD14C01F32DF0683F2E04
S1132610820133FC19C0822D90E088169906A0F43B
S1132620B60180E290E033D12A94F5CFF50137FC6E
S1132630859137FE81915F01B60190E028D1211088
S11326402A9421E0821A91088114910479F7E1C057
S1132650843611F0893639F5F80137FE07C06081F8
S11326607181828193810C5F1F4F08C060817181E9
S1132670072E000C880B990B0E5F1F4FF32DFF766E
S11326803F2E97FF09C090958095709561957F4F77
S11326908F4F9F4FF0683F2E2AE030E0A30133D1E3
S11326A0882E861844C0853731F4232D2F7EB22E10
S11326B02AE030E025C0932D997FB92E8F36C1F0E2
S11326C018F4883579F0AEC0803719F0883721F0D6
S11326D0A9C0E92FE061BE2EB4FE0DC0FB2DF4604D
S11326E0BF2E09C034FE0AC0292F2660B22E06C0B0
S11326F028E030E005C020E130E002C020E132E013
S1132700F801B7FE07C060817181828193810C5FFB
S11327101F4F06C06081718180E090E00E5F1F4F03
S1132720A301F1D0882E8618FB2DFF773F2E36FEAD
S11327300DC0232D2E7FA22E891458F434FE0BC015
S113274032FC09C0832D8E7EA82E05C0B82CA32C84
S113275003C0B82C01C0B92CA4FE0FC0FE01E80DC3
S1132760F11D8081803321F49A2D997EA92E09C010
S1132770A2FE06C0B394B39404C08A2D867809F0EF
S1132780B394A3FC10C0A0FE06C0B21480F4280CBD
S1132790922C9B180DC0B21458F4B60180E290E05C
S11327A076D0B394F8CFB21418F42B1802C0982C36
S11327B0212CA4FE0FC0B60180E390E068D0A2FEF5
S11327C016C0A1FC03C088E790E002C088E590E051
S11327D0B6010CC08A2D867851F0A1FE02C08BE2AE
S11327E001C080E2A7FC8DE2B60190E050D08914CC
S11327F030F4B60180E390E04AD09A94F8CF8A94FA
S1132800F301E80DF11D8081B60190E040D0811004
S1132810F6CF222009F44ECEB60180E290E037D004
S11328202A94F7CFF6018681978102C08FEF9FEF3C
S11328302B960FB6F894DEBF0FBECDBFDF91CF91BC
S11328401F910F91FF90EF90DF90CF90BF90AF90CA
S11328509F908F907F906F905F904F903F902F90BC
S11328600895FC010590615070400110D8F78095DF
S113287090958E0F9F1F0895FC0161507040019048
S11328800110D8F7809590958E0F9F1F08950F9390
S11328901F93CF93DF93FB01238121FD03C08FEFAF
S11328A09FEF2CC022FF16C04681578124813581B9
S11328B04217530744F4A081B1819D012F5F3F4F1C
S11328C0318320838C93268137812F5F3F4F378359
S11328D0268314C08B01EC01FB010084F185E02DFB
S11328E00995892BE1F6D80116968D919C9117973D
S11328F0019617969C938E931697CE01DF91CF91F4
S11329001F910F910895FA01AA27283051F120311F
S113291081F1E8946F936E7F6E5F7F4F8F4F9F4F6F
S1132920AF4FB1E03ED0B4E03CD0670F781F891FB1
S11329309A1FA11D680F791F8A1F911DA11D6A0F7F
S1132940711D811D911DA11D20D009F468943F9132
S11329502AE0269F11243019305D3193DEF6CF0131
S11329600895462F4770405D4193B3E00FD0C9F7F7
S1132970F6CF462F4F70405D4A3318F0495D31FD64
S11329804052419302D0A9F7EACFB4E0A6959795B7
S1132990879577956795BA95C9F70097610571058D
S11329A008959B01AC010A2E0694579547953795D7
S11329B02795BA95C9F7620F731F841F951FA01D31
S10929C00895F894FFCF16
S11329C63132333435363738392A3023FFFF4D5107
S11329D6545400313233340025750049444C4500C3
S11329E6472F6669726500686F6D65206F6E206695
S11329F66972650048756D69643D20202020202594
S1132A0652480074656D703D2020202020204465C6
S1132A16672E6300323500472F74656D7000472FAB
S1132A2668756D0054656D702048696768202620B6
S1132A3646616E204F4E00736F696C206D6F69732B
S1132A46743D20202025004C696768743D202020B1
S1132A562500456E7465722070617373776F7264B6
S1132A66203A005061737320616363657074656412
S1132A760057726F6E6720506173730031313131C4
S1132A86002A2A2057454C434F4D20544F202A2ACA
S1132A962A002A2A2A2A20534D415254202A2A2A15
S1132AA62A2A002A2A2A2A20484F4D45202A2A2A39
S1132AB62A2A2A002A2A2A2A2A2A2A2A2A2A2A2A96
S10F2AC62A2A2A2A00472F444854000002
S9030000FC
